:100000000C94E3050C9400060C9400060C947931D2
:100010000C9400060C9400060C9400060C94000648
:100020000C9400060C9400060C94C11E0C94031E44
:100030000C942F210C9400060C9400060C940006DE
:100040000C9400060C9400060C9400060C94000618
:100050000C9400060C94C6200C9400060C94000628
:100060000C9400060C9400060C9400060C940006F8
:100070000C9400060C9400060C9400060C940006E8
:100080000C9400060C9400060C9400060C940006D8
:100090000C9400060C9400060C9400060C940006C8
:1000A0000C9400060C9400060C940006290B2C0BF3
:1000B0004A0B570B5E0B690B6C0BB30BE70B940CE5
:1000C000940CF20BF40BF90B210C460C490C4C0C64
:1000D000710CC911C911FC11FC116F12901390130E
:1000E00090138D120113121312131B1C421CEB1DD3
:1000F000421CEB1D8E1CB11CEB1DA61DB61D00DAAB
:100100000281FFD9F1DB20A4A62EAF00A0C000A180
:10011000C800AED580A81FD300408D1420003F3FFB
:100120003F20200041646A20200053796D20200088
:100130004E6176202000416C7068610020202020F4
:1001400020002043415020000A0A0A0A0A0A0A0A2B
:100150000A000A0A0A005370005620005320004883
:1001600020004D6F0057494E0A004D41430A00538D
:100170006F666C6543686F63205F5F5F5F5F0080E1
:100180008182838485868788898A8B8C8D8E8F90E7
:1001900091929394A0A1A2A3A4A5A6A7A8A9AAAB53
:1001A000ACADAEAFB0B1B2B3B4C0C1C2C3C4C5C6CA
:1001B000C7C8C9CACBCCCDCECFD0D1D2D3D4000002
:1001C000000000000000000000000000000000002F
:1001D000000000000000000000000000000000001F
:1001E0000000007E0F00D4FFFFFFC7000000780072
:1001F000000000000000002A2B2800000000000082
:100200000000000000000000000029000000002C99
:100210001E3420212224342627252E362D37382738
:100220001E1F202122232425263333362E37381F44
:100230000405060708090A0B0C0D0E0F1011121306
:100240001415161718191A1B1C1D2F3130232D35A4
:100250000405060708090A0B0C0D0E0F10111213E6
:100260001415161718191A1B1C1D2F3130354C0583
:10027000010980A101850319012AB700150126B7DC
:1002800000950175108100C0050C0901A1018504CC
:1002900019012AA002150126A002950175108100FE
:1002A000C00660FF0961A1010962150026FF0095E3
:1002B00020750881020963150026FF009520750846
:1002C0009102C005010906A101050719E029E715FA
:1002D00000250195087501810295017508810105C8
:1002E00007190029FF150026FF00950675088100F3
:1002F00005081901290595057501910295017503F8
:100300009101C009025B00030100A0FA090400008A
:10031000010301010009211101000122400007052C
:100320008103080001090401000203000000092103
:1003300011010001222200070582032000010705A8
:100340000303200001090402000103000000092149
:10035000110100012232000705840320000112016F
:1003600000020000000832FC8702010001020001C7
:10037000160353006F0066006C0065002000430008
:1003800068006F00630000001403420072006900FF
:1003900061006E0020004C006F0077000000040335
:1003A000090407087F0807003E5B4F5B3E003E6B79
:1003B0004F6B3E001C3E7C3E1C00183C7E3C1800EF
:1003C0001C577D571C001C5E7F5E1C0000183C18EB
:1003D0000000FFE7C3E7FF00001824180000FFE754
:1003E000DBE7FF0030483A060E002629792926006F
:1003F000407F05050700407F05253F005A3CE73C4C
:100400005A007F3E1C1C0800081C1C3E7F00142262
:100410007F2214005F5F005F5F0006097F017F009D
:10042000006689956A0060606060600094A2FFA227
:10043000940008047E04080010207E2010000808A4
:100440002A1C0800081C2A0808001E1010101000A2
:100450000C1E0C1E0C0030383E383000060E3E0ECE
:10046000060000000000000000005F000000000720
:1004700000070000147F147F1400242A7F2A120032
:100480002313086462003649562050000008070311
:100490000000001C224100000041221C00002A1C18
:1004A0007F1C2A0008083E08080000807030000009
:1004B0000808080808000000606000002010080418
:1004C00002003E5149453E0000427F400000724913
:1004D000494946002141494D33001814127F10004C
:1004E0002745454539003C4A494931004121110918
:1004F0000700364949493600464949291E0000008F
:1005000014000000004034000000000814224100E4
:100510001414141414000041221408000201590993
:1005200006003E415D594E007C1211127C007F494D
:10053000494936003E41414122007F4141413E0050
:100540007F49494941007F09090901003E41415164
:1005500073007F0808087F0000417F4100002040B1
:10056000413F01007F08142241007F40404040008D
:100570007F021C027F007F0408107F003E41414142
:100580003E007F09090906003E4151215E007F09B6
:100590001929460026494949320003017F01030019
:1005A0003F4040403F001F2040201F003F40384058
:1005B0003F006314081463000304780403006159C6
:1005C000494D4300007F41414100020408102000D2
:1005D000004141417F0004020102040040404040CC
:1005E00040000003070800002054547840007F2892
:1005F00044443800384444442800384444287F00A8
:1006000038545454180000087E09020018A4A49C11
:1006100078007F080404780000447D4000002040FA
:10062000403D00007F102844000000417F40000052
:100630007C04780478007C0804047800384444443E
:100640003800FC182424180018242418FC007C0806
:100650000404080048545454240004043F44240073
:100660003C4040207C001C2040201C003C4030408E
:100670003C004428102844004C9090907C00446436
:10068000544C440000083641000000007700000090
:100690000041360800000201020402003C26232625
:1006A0003C00000000000000404040F0F8F8FF3837
:1006B000FFF8F83FF8F8FF38FFF8F8F04040400046
:1006C000000000000080C0C0C0800000C0C08000EA
:1006D000000080C0C000C0C0000080C0C00000009A
:1006E0000000C0C0C0C0C000C0C0000000000000CA
:1006F00000000000000000000000000000000000FA
:1007000000000000000000000000000000000000E9
:1007100000000000000000000000000000000000D9
:1007200000C0F0F8FC3E1E06010000007F41414180
:100730007F007F4141417F000080C0E07E5B4F5BD6
:10074000FEC00000C000DCD7DEDEDED7DC00C0006B
:100750000000000000000000000000000000000099
:100760000000000000000000494949FFFFFFFFE0D2
:10077000DFBFBF00BFBFDFE0FFFFFFFF4949490008
:10078000000000001F3F6060E0BF1F007F7F071E6A
:10079000381E077F7F007F7F0E1F3B7160000000C7
:1007A00000007F7F0C0C0C007E7E007F7E03030028
:1007B0007F7E03037E7E03037F7E000F3E703C0638
:1007C0003C703E0F00327B49493F7E007F7E030331
:1007D000001E3F69696F2600000000000000000055
:1007E00000030F1F3F3C7870600000007F414141D3
:1007F0007F007F4141417F00307B7F783020203077
:10080000787F3B0003000F7F0F0F0F7F0F00030067
:1008100000000000000000000000000000000000D8
:100820000000000000000000010101070F0F7F0F12
:100830007F0F0F7E0F0F7F0F7F0F0F07010101004A
:1008400000000000000000000001010000000000A6
:100850000000000000000000000000000000000098
:100860000000000000000000000000000000000088
:100870000000000000000000000000000000000078
:100880000000000000000000000000000000000068
:100890000000000000000000000000000000000058
:1008A0000000000000000000000000000000000048
:1008B0000000000000000000000000000000000038
:1008C0000000000000000000000000000000000028
:1008D0000000000000000000000000000000000018
:1008E000000000AF00AE35001E001F0020002100F8
:1008F0002200290014001A000800150017002B0020
:1009000004001600070009000A00E1001D001B009A
:10091000060019000500E300E200E000B15D2800D8
:10092000A8003500270026002500240023002A0007
:10093000130012000C0018001C00340033000F00DC
:100940000E000D000B00E5003800370036001000E7
:100950001100E700E600E400B25D2C00AE000100EB
:1009600001000100010001000100010049004600F2
:100970006500000000000100E200E000E10000006E
:10098000390001007A007B007C007D00000001003E
:10099000010001000100010001000100010001004F
:1009A0000100010001002A00B85DB55D5200B45D90
:1009B0004B002A004C004F00510050004E00010037
:1009C0000000B75D0000B65D0000010001000100FD
:1009D00001000100010001003A003B003C003D0025
:1009E0003E0035001E001F002000210022000100F3
:1009F0001E021F0220022102220201002E002D00F1
:100A00002E022F023002010001000100010001004E
:100A10000100440043004200410040003F00450007
:100A20002700260025002400230031022702260289
:100A3000250224022302010031003302330030007A
:100A40002F00010001000100010001000100000071
:100A500000000000000000000000005CCB5CC95CEE
:100A6000C75CC55CC35C0000CC5CCA5CC85CC65C8F
:100A7000C45C005D000000000000000000000100F8
:100A80000100010001000100000000000000000062
:100A90000000000000000000000000000000000056
:100AA000000000000000A900A800AA00000000004B
:100AB0000000AB00AE00AC0000000100010001002E
:100AC000010001000000000101010101010101011B
:100AD00002020202020202020203030303030303EF
:100AE00003040404040404040505050505060606BC
:100AF0000606070707070708080808090909090A79
:100B00000A0A0B0B0B0C0C0C0D0D0D0E0E0E0F0F1D
:100B10000F101011111112121313141415151616AB
:100B20001717181819191A1A1B1B1C1D1D1E1E1F1A
:100B30002020212222232424252626272829292A69
:100B40002B2C2D2D2E2F3031323233343536373891
:100B5000393A3B3C3D3E3F4041424344454647488D
:100B6000494A4C4D4E4F50515354555658595A5B63
:100B70005D5E5F616264656668696B6C6D6F707203
:100B8000737577787A7B7D7E8082838587888A8C6F
:100B90008E8F91939596989A9C9EA0A2A3A5A7A9A3
:100BA000ABADAFB1B3B5B7BABCBEC0C2C4C6C9CB9A
:100BB000CDCFD1D4D6D8DBDDDFE2E4E7E9EBEEF050
:100BC000F3F5F8FAFDFF11241FBECFEFDAE0DEBF28
:100BD000CDBF12E0A0E0B1E0EEE4F7E602C0059080
:100BE0000D92AA3BB107D9F726E0AAEBB2E001C00B
:100BF0001D92A63DB207E1F70E9402060C94A533B0
:100C00000C940000AEE2B0E0E8E0F6E00C94AE3206
:100C100085B7806885BF85B7806885BF84B7877FC3
:100C200084BF0FB6F894A895809160008861809386
:100C30006000109260000FBE90E080E80FB6F8945C
:100C400080936100909361000FBE8EE194E19093D8
:100C5000BB028093BA020E94471E0E94661E8091CA
:100C6000E20084608093E200789480915F0388239F
:100C7000A1F01091E9001F709091EC00892F817014
:100C800090FD80E8182B1092E9008091E80083FD28
:100C90000E94381B1F701093E90082E084BD93E02E
:100CA00095BD9AEF97BD80936E001092BC02109292
:100CB000BD021092BE021092BF020E942824811130
:100CC00002C00E9418240E949415809300010E9483
:100CD000941581110E9434318091000180910001AE
:100CE000882311F090E001C095E09093CB0285E05D
:100CF000891B8093CA020FE511E084E6E82E81E0AB
:100D0000F82ED8018D918D018F3F11F00E94B815FA
:100D1000E016F106B1F704E611E0BAE6EB2EB1E019
:100D2000FB2EF80181918F018F3F11F00E94B815C1
:100D3000E016F106B1F78AE0EAE0F3E0DF01282FE0
:100D40001D922A95E9F7E0ECF2E0DF011D928A9509
:100D5000E9F70E946918811102C00E94532582E0C0
:100D600090E00E94FE328093D0020E945818909327
:100D7000E4028093E3020E947518EFE3FCE93197E7
:100D8000F1F700C000000E94751880910A0380FFEF
:100D900008C06FEF7FEF80E090E00E943A330E943E
:100DA000B52083E090E00E94FE320E9441290E941B
:100DB0006918811104C00E9453250E94A42C46E0AA
:100DC00050E06CE170E084E793E00E94EE32109214
:100DD0007303809174038C7F11F40E94A42C0E94F1
:100DE0009415882311F083E001C080E0809305030F
:100DF00080FD02C080E801C080E2809328040E9448
:100E0000EA2F6DE070E081E191E00E94111B892BD7
:100E100009F043C08091050363E070E081FD3AC0B2
:100E20008EE091E00E94111B892BB9F56DE070E016
:100E30008EEF90E00E94111B892B79F50E941721FB
:100E4000DC01CB01805A9541AF4FBF4F80933306F1
:100E500090933406A0933506B0933606EBE2F4E0A7
:100E600080E092E0DF019C011D9221503040E1F7CB
:100E7000F0933206E09331068FEF9FEF90932A04B0
:100E80008093290481E0809338068093370610927E
:100E9000060303C08BE091E0C5CF9091000181E093
:100EA00098279093DF02382F391B3093CD02909111
:100EB00000018093E002909100018093CC02809128
:100EC0000001811106C084EF80930E0185EF8093AD
:100ED0000D0180910E01E82FE295EF70F0E041A145
:100EE000282F2F7081E090E0BC0102C0660F771FB1
:100EF0002A95E2F79B01362F3095342331A332A196
:100F0000232B22A320910D01E22FE295EF70F0E058
:100F100031A12F7001C0880F2A95EAF7982F90957C
:100F2000932391A392A1892B82A38FE891E001974B
:100F3000F1F700C000007091E002A1EEB2E00EE017
:100F400011E04DE051E060E0671751F1F8012191A7
:100F50008F01822F82958F7090E0FC0180A190E03C
:100F60002F7002C0959587952A95E2F78170FA0156
:100F70009191AF01292F22952F7030E0F90120A126
:100F800030E09F7002C0359527959A95E2F720FFD3
:100F900002C092E001C090E0892B8D936F5FD4CFA7
:100FA0000E949415811102C00E94373181E091E0C6
:100FB00090933F0680933E066624639422242394F4
:100FC000312C80915F03853009F057C0F0E4FF2E8B
:100FD00000E112E180915F03853009F048C0809103
:100FE0005F03843009F432C00E94E62480917203CA
:100FF000811105C00E949E2980E00E94D924609240
:1010000072030E94C0221092420628E130E00FB61F
:10101000F894A895209360000FBEF092600083B70B
:10102000817F846083BF83B7816083BF7894889514
:1010300083B78E7F83BF0FB6F894A8958091600028
:10104000886180936000109260000FBE80915E0303
:10105000882309F4BFCF0E947518EAE0F3E081917C
:1010600081118BC433E0E431F307C9F7B3CF0E9499
:1010700046290E949E21109272030E94751801ED6C
:1010800012E06AE073E07CA76BA7DB01F8019191A5
:101090008D91892772E0EB3DF70719F08823B9F3AA
:1010A00022C0811120C00E9423218C018091CE0298
:1010B0009091CF020817190709F475C48FEF89A31F
:1010C0008AA31BA20E9423218160782F9DA38CA359
:1010D00049A15AA16BA18DA10E94BF2C1093CF02F0
:1010E0000093CE0260C40E949415882EEAE0EE2E92
:1010F000E3E0FE2ED12CD7019D907D01F801A08068
:10110000A92419F1C12CBB24B3948A2D8B21B1F0F1
:101110008820A1F0CEA2DFA291E0892D8B2109F4D5
:1011200090E098A70E9423218160782F9AA789A731
:101130004EA15FA168A58AA50E94BF2CC394BB0CD9
:10114000F6E0CF12E2CFD8019C92D3940F5F1F4FED
:10115000BAE0DB12D0CF0E941721CC24C3940E94A6
:1011600094150E94E624E12CD12C8091E002E8162F
:1011700008F078C00E2D10E0F801E25FFE4F80818C
:10118000E82FE295EF70F0E0E0A1F0E08F7002C090
:10119000F595E7958A95E2F7E170D801A35FBE4F18
:1011A0002C91A22FA295AF70B0E090968C9190E018
:1011B0002F7002C0959587952A95E2F780FF02C0AF
:1011C00082E001C080E04E2F482BD801AF51BD4FC7
:1011D000EC918E2F837090E0242F042E000C330BA3
:1011E00082179307E9F1EE0FEE0FE42BEC93F090EA
:1011F000DF02FE0CEF70F0E0E659FE4F03521D4F88
:101200009081F8018081890F808382306CF0EF2D0E
:10121000F0E0E552FD4F80818F5F808360E08F2D8D
:101220000E94F42D21E001C020E0D8018C918F3F75
:1012300064F4EF2DF0E0E552FD4F80818150808312
:1012400061E08F2D0E94F42D21E0F8018081082EAD
:10125000000C990B62E070E00E944C338083D22A2C
:10126000E39483CFD1100E94FB1780913806882326
:1012700009F498C180910703909108030E94082106
:10128000C29708F48FC00E94232190930803809393
:1012900007038BE294E090933206809331060E941C
:1012A000941560E0882309F479C08FE691E00E94EC
:1012B000D723809169030E945C2D8330F1F5109152
:1012C000740316951695B0907503E0907603F09030
:1012D0007703009178038091E40260E080FF03C00F
:1012E0008AE691E002C085E691E00E94D7238BE573
:1012F00091E00E94F81A81E00E940023612F82E6AB
:1013000091E00E94862D6B2D8FE591E00E94862D45
:101310006E2D8CE591E00E94862D6F2D89E591E080
:101320000E94862D602F86E591E00E94862D60E068
:1013300082E591E00E94C52312C060E088E491E05C
:101340000E94C5230E949E2181FF04C061E082E4C7
:1013500091E003C060E08CE391E00E94D72380918C
:1013600069030E945C2D813069F040F0823071F099
:10137000833081F460E084E291E012C060E086E3B3
:1013800091E00EC060E080E391E00AC060E08AE294
:1013900091E006C060E08EE191E002C08FE791E04D
:1013A0000E94C52380913806882309F4E0C020916B
:1013B000290430912A042115310509F4D8C08091FF
:1013C00006038111D4C0482E512C7101082E02C091
:1013D000EE0CFF1C0A94E2F7A9014E215F21452B78
:1013E00011F48F5FF0CF90910503920175E0220F09
:1013F000331F7A95E1F790FD12C08295880F8076B1
:1014000080931101220F232F221F330B319520933C
:101410001401815E809312011092150112C055E0F3
:10142000369527955A95E1F7220F220F220F209328
:10143000110110921401295F2093120183E080931F
:10144000150124E630E047E050E06FE071E088E706
:101450000E949230892B09F08AC08091050380FD9B
:1014600023C0C20145E0880F991F4A95E1F7AC01FE
:10147000455D5B4F04E610E020E230E060E488E781
:101480000E94B330892B09F072C00E94DA22E094E6
:10149000F0948091290490912A04E822F922F09294
:1014A0002A04E092290463C080E2E5EEF2E0DF0165
:1014B0001D928A95E9F735E0440C551C3A95E1F701
:1014C000EEE7F1E0FEA7EDA76AE771E0ADA5BEA5E6
:1014D0008D91BEA7ADA7FB019191BF01A201490F5C
:1014E000511D455D5B4F90E08B519D4FFC0127E006
:1014F000A22E9F01281B390B822C01C0880C2A9533
:10150000EAF78A01912CD801BD908D01B8202A2DCF
:1015100029192770722E022E000C330BBB2D01C02F
:10152000BB0F7A94EAF77B2E31952195310927700C
:10153000332701C0B6942A95EAF77B28B0807B2830
:101540007082939428E09212DECFAA9431963FEFF6
:10155000A312CFCF8DA59EA58258914009F0B6CF9A
:1015600004E610E020E230E045EE52E087CF8091C3
:1015700037068823B9F00E94172100913306109195
:1015800034062091350630913606DC01CB01801BF4
:10159000910BA20BB30B8F3F9F4FAF4FBF4710F480
:1015A0000E94C022C11001C0D1100E94DA220E9404
:1015B0009E2190910903891721F0809309030E94CD
:1015C000172180915F03843009F0FBCC83E0809386
:1015D000E9008091E80082FFF4CC8091E80085FF6B
:1015E00022C00E94981F81111CC000E210E09E01E1
:1015F0002F5F3F4F790108C08091F100D7018D9393
:101600007D010150110969F08091E80085FDF4CF5A
:101610008091E8008B778093E8000E94981F8823D0
:1016200099F391E001C090E08091E8008B7780937E
:10163000E800992309F4C5CCE9818E2F90E0FC01E4
:101640003197E331F10508F06FC1EA5AFF4F0C946E
:1016500082331A828AE0CBC08A81823009F4A5C124
:10166000833051F0813009F05FC10E9417219B83C4
:101670008C837D836E835AC1FE013396CE010D9615
:10168000ABA5BCA52D91BCA7ABA721938E179F0737
:10169000B9F74CC18A81823009F046C16B817C81E7
:1016A0008D819E810E9488330E94F4233FC14C812A
:1016B0006B818A810E9484229D837EC12D813E811F
:1016C0003227232732274C816B818A810E9428226E
:1016D0002DC10E944F222AC18A818138D1F070F435
:1016E000803809F023C14B8124E6429F412D11240B
:1016F0008091750320E06091760331C0823819F142
:10170000833809F013C18B8120E0409177036C810D
:1017100026C060E08B810E94A9249B818091740384
:10172000911107C0982F937011F0109254018C7F83
:1017300007C0982F937011F4109254018C7F816030
:1017400080937403F3C0EB81E43028F4F0E0EE57AB
:10175000FE4F808101C08FE780937803E7C090E05F
:101760000E944824E3C08A818138E1F078F480380F
:1017700009F0DCC080917703BFEF8B9FC00111247B
:1017800064E670E00E949A326B83D0C0823879F0B0
:10179000833809F0CBC0809175038B8380917603E9
:1017A0008C83C4C0809174038695869520C08091F7
:1017B0007803873230F08F3530F08E3930F482E0A4
:1017C00016C080E014C081E012C083E010C046E083
:1017D00050E06CE170E084E793E00E940C331092DB
:1017E0007303A4C080E156C0E1E0EA8389EF8B83F4
:1017F0009DC00A811B81102701271027CC80D12C86
:101800009E012F5F3F4F59017901C801895F9D4FAC
:1018100097012A193B092C153D0508F087C0093F9F
:1018200031E0130730F40E94FE32D70114968C93F6
:1018300002C0F70114820F5F1F4FFFEFEF1AFF0A7C
:10184000E4CF0A811B81102701271027CC80D12CDF
:101850009E012F5F3F4F59017901C801895F9D4F5C
:1018600097012A193B092C153D0508F05FC0093F77
:1018700031E0130728F4D70114966C910E941C33B1
:101880000F5F1F4FBFEFEB1AFB0AE7CF0E94182232
:101890004DC084E08A834AC00A811B81102701273A
:1018A0001027CC80D12CFE0131965F017F01C80149
:1018B000879697012A193B092C153D05B8F5003E7E
:1018C000F1E01F0730F40E94FE32D70114968C938A
:1018D00002C0F70114820F5F1F4FFFEFEF1AFF0ADC
:1018E000E6CF0A811B81102701271027CC80D12C3D
:1018F0009E012F5F3F4F59017901C80187969701DB
:101900002A193B092C153D0588F4003E31E01307E8
:1019100028F4D70114966C910E941C330F5F1F4F5F
:10192000BFEFEB1AFB0AE9CF8FEF898380915F034A
:10193000843009F046CB1091E9001F709091EC00C3
:10194000892F817090FD80E8182B82E08093E90058
:101950008091E80080FF0DC040E050E060E270E060
:10196000CE0101960E94CB1F8091E8008E77809374
:10197000E8001F701093E90024CB09BD19BD09B41C
:1019800000FEFDCF8091D8008F7D8093D80080919C
:10199000E00082608093E0008091E00081FDFCCF58
:1019A0000E94462917CBC12CDACB86E290E00E9438
:1019B000FE321B821C821D828E83B8CFA9E0B0E06C
:1019C000E4EEFCE00C94AF32FC0180819181238134
:1019D0003481232B31F09F3F31F491E08F3F19F494
:1019E00003C091E001C090E090FD24C77F0185E035
:1019F000DE01119601900D928A95E1F7F70122819F
:101A000089819A81222349F00E948726182F682F06
:101A100089819A810E94B52803C00E948128182FCD
:101A200069817A81812F0E94B2228C01F701828123
:101A3000882309F432C1980122513F4520313105F4
:101A400008F0EEC08FEF93E00E94FE3281110BC1CF
:101A5000025137E0832E32E0932E002379F0811477
:101A6000F4E09F0609F4FFC0C4010E94FE32811118
:101A700001C001502FEF821A920AEFCF1E821F82FF
:101A800018861986442443942AE0322E84010F5F7D
:101A90001F4FC4010E94FE328E831F82882309F4E7
:101AA000E2C09FEF980F933060F48F834E8232E054
:101AB000830E911CC8010E94FE328887811102C0EA
:101AC000D2C048018E010A5F1F4FF80120812223F6
:101AD000E9F2213009F04CC08181813049F468017C
:101AE000F2E0CF0ED11CF80182810E9463290AC066
:101AF000823051F46801F2E0CF0ED11CF8018281EE
:101B00000E94952F860189C0833049F46801F2E074
:101B1000CF0ED11CF80182810E94622FF3CF843056
:101B200019F00F5F1F4F79C0F80122810E5F1F4F20
:101B300080E090E030E0205331092A30310568F42C
:101B4000389EA001399E500D1124C901840F951FA4
:101B50000F5F1F4FF8012081EDCF009709F45DC0A2
:101B6000EFE9FFE03197F1F700C000000197F5CFF2
:101B7000E22FF0E0E151FE4F5490822F869586953A
:101B8000869590E0FC01E152FE4F64902770712C25
:101B9000022E02C0759467940A94E2F7F1E06F2276
:101BA0007724FC01E153FE4FA490B12C022E02C019
:101BB000B594A7940A94E2F731E0A322BB24FC0178
:101BC000E154FE4FC490D12C02C0D594C7942A95FD
:101BD000E2F781E0C822DD246114710419F081EE7E
:101BE0000E94952FA114B10419F086EE0E94952F42
:101BF000852D0E946329A114B10419F086EE0E947C
:101C0000622F6114710419F081EE0E94622FC114D9
:101C1000D10419F08CE20E9463290F5F1F4F55CF4A
:101C20000031FFE51F0789F101312FE5120799F116
:101C3000023BFDE51F0769F108F04BC00C371105A9
:101C4000B1F108F466C00D37110509F489C0013BF4
:101C50003DE5130709F0F9C0811117C081E00E942A
:101C6000EF280E94EC1A8091A206877009F4E2C561
:101C7000F7018281882309F4DDC58091E40282FFA7
:101C8000D9C582E00E94FC28D5C581E00E94352993
:101C9000E8CF882351F082E0F9CF00313FE5130708
:101CA000E9F201319FE5190719F682E0D8CF8823C0
:101CB00049F081E00E9431160E94592986E00E9475
:101CC000952FD1CF81E00E9431160E94522986E0E3
:101CD0001DC0053B9DE5190709F452C008F081C0FD
:101CE000033BFDE51F0709F465C0043B2DE5120722
:101CF00009F0ABC09091E402811166C090FF6FC003
:101D000084E00E9431160E94522980E50E94622FD1
:101D1000AACF0A37110581F4882339F081E00E94A7
:101D200031160E9459298DE1CACF81E00E943116F7
:101D30000E9452298DE1EACF0B37110509F085C0C9
:101D4000882339F081E00E9431160E9459298BE1E5
:101D5000B6CF81E00E9431160E9452298BE1D6CF86
:101D6000882339F081E00E9431160E94592989E1C7
:101D7000A6CF81E00E9431160E94522989E1C6CF88
:101D80009091E402882359F090FF02C084E001C0E2
:101D900081E00E9431160E9459298FE490CF90FF74
:101DA00002C084E001C081E00E9431160E945229E5
:101DB0008FE4ACCF882321F083E00E94352953CFF4
:101DC00083E00E94EF284FCF90FF02C084E001C063
:101DD00081E00E9431160E94592980E570CF81E090
:101DE00090CF073B3DE5130761F49091E40288230F
:101DF00021F090FDCDCF8DE462CF90FDD4CF8DE466
:101E000085CF073B9DE5190760F49091E402882394
:101E100021F090FDDDCF8AE452CF90FDE0CF8AE43F
:101E200075CF083BEDE51E0781F4882339F081E08A
:101E30000E9431160E9459298AE241CF81E00E9416
:101E400031160E9452298AE261CF033FFCE51F0749
:101E500099F406E221EE40EE63EF7CE509C0073D10
:101E6000ECE51E0711F506E221EE41EE67ED7CE59B
:101E7000C7010E94AF21F7CE043F2CE5120708F0FE
:101E800098C1083D3CE5130731F407E225EE45EE25
:101E900068ED7CE5EDCF093D9CE5190701F708E207
:101EA00021E045EE69ED7CE5E3CF882309F4B6C176
:101EB00010923B0603309DE5190758F40A3FECE504
:101EC0001E07C0F4C80182509C45449708F090C199
:101ED00011C0053AFDE51F0769F030F401363DE514
:101EE000130709F085C106C0C8018D5A9D450397A7
:101EF00008F07EC10E9458189093E4028093E30298
:101F000002318CE5180709F40CC108F04DC0093006
:101F1000ECE51E0709F4D9C008F505302CE51207D9
:101F200009F4C0C080F403308CE5180709F4B1C08F
:101F300008F0B5C00230ECE51E0709F02AC1809117
:101F4000E3028160A9C00730FCE51F0709F4B5C0B2
:101F500008F0B7C08091E30280619EC00D303CE57F
:101F6000130709F4C8C058F40B309CE5190709F4AD
:101F7000B6C008F0BCC08091E3028860ACC00F30EE
:101F8000FCE51F0709F4C5C008F4B8C000313CE502
:101F9000130709F4C2C001318CE5180709F0F9C034
:101FA0008091E3028F7B78C00F3F9CE5190709F40D
:101FB000C3C098F50A3FFCE51F0709F477C0C0F4D9
:101FC00004313CE5130709F4C6C008F4B0C005317C
:101FD0009CE5190709F0DDC08091E30282FB22270E
:101FE00020F991E0922790FB82F990FB83F954C08D
:101FF0000C3FECE51E0709F485C008F45AC00D3FFC
:102000002CE5120709F481C00E3F3CE5130709F0E7
:10201000C0C08091E402826060C001368DE518077F
:1020200009F4ABC070F40130EDE51E0709F49FC060
:1020300008F487C002302DE5120709F0AAC060E05D
:1020400097C00D3A3DE5130701F160F4053A9DE5AF
:10205000190709F09EC08091E302982F909590FB9C
:1020600080F91AC00E3AEDE51E07E9F10F3AFDE5D9
:102070001F0709F08EC08091E40283FB222720F91C
:1020800091E0922790FB83F982C08091E4028860FE
:102090007EC08091E30282608093E3027AC08091E7
:1020A000E30219C08091E3028860F6CF8091E402D8
:1020B00014C08091E40282606AC08091E302806271
:1020C000EBCF8091E3028064E7CF0E9446298091A4
:1020D000E3028068E1CF8460DFCF816058C08091E7
:1020E000E3028E7FD9CF8091E402877F50C0809138
:1020F000E3028D7FD1CF8091E3021CC08091E30287
:10210000877FCACF8091E4021AC08091E4028D7F5C
:102110003EC08091E3028F7EBFCF8091E3028F7D2E
:10212000BBCF0E9446298091E3028F77B5CF809183
:10213000E302877F8B7FB0CF8091E4028D7F8E7F1B
:1021400026C08091E402982F909591708E7F892B04
:1021500090FB81F91CC00E9446298091E30287FB15
:10216000222720F991E0922790FB87F995CF61E033
:102170008EE090E00E941C330CC08091E30284FB4F
:10218000222720F991E0922790FB84F985CF809354
:10219000E4026091E3021091E40284E090E00E9486
:1021A0001C33612F82E290E00E941C330E9446297A
:1021B0005ACD053FFCE51F0731F406E221EE42EE61
:1021C00065EF7CE555CE053F2CE5120730F407E2BC
:1021D00025EE44EE64EF7CE54BCE063F3CE513076D
:1021E00009F063CE07E225EE46EE66EF7CE540CED1
:1021F00006318CE5180759F58091AC068A7A91E092
:1022000009F490E090931403882311F065E301C072
:1022100069E28AE496E00E94582116C00631ECE596
:102220001E0709F04EC080911403882309F497C259
:1022300085E3EAE4F6E09281891301C012823196C7
:1022400026E0E035F207B9F70E94CB250CCD0A3520
:102250003DE5130781F160F401159CE5190791F044
:102260000E3DECE51E0709F047C00E94532518C03B
:102270000C35FDE51F07B9F000F1073A3DE51307FE
:1022800079F03AC00E9446298FEF94E3ECE0815048
:102290009040E040E1F700C000000E94B520E3CC90
:1022A0000E94702DE0CC8091E40282FB882780F9A7
:1022B00091E0892703C081E001C080E00E941929D4
:1022C0001BC08091AC068272093C3CE5130709F4FF
:1022D0009BC208F446C20D3CFCE51F0709F4A5C2E9
:1022E00008F467C2063DECE51E0708F46CC20D3524
:1022F0002DE5120709F4B7CCF70182810081118125
:10230000882349F0C8010E948726D82E682FC8016B
:102310000E94B52804C0C8010E948128D82EB801A7
:102320008D2D0E94B2220E947416B82E192F982E5D
:10233000F7010281A580A2949FE0A9228091A206C4
:102340008770B9F00023A9F0812F807F803421F0BD
:1023500080E28B0D883068F08091E40282FF09C032
:1023600082E00E94FC288091A2068770DD24D3942D
:102370008111D12CC12EC2948FE0C8228C2D90E007
:102380008C30910508F0CCC1FC01E759FF4F0C944B
:102390008233812F807F1F70882311F01295107F68
:1023A0000023B9F0112309F4A9C180E28B0D883014
:1023B00010F0911006C08091AC06182B1093AC065B
:1023C00005C08091AB06182B1093AB060E94CB255D
:1023D00095C18B2D0E94622F112309F4A1C180E2C7
:1023E0008B0D883080F1992071F110958091AB06AA
:1023F00018231093AB062AC0812F807F1F70803274
:1024000011F01295107F8B2D992021F0F1E09F168D
:10241000D9F149C08091E40282FD1BC0002369F01C
:10242000112339F08091AC06182B1093AC060E9452
:10243000CB2580E00E94952F73C180E00E94622F1F
:10244000112309F46DC1812F0E94C4250E94CB2560
:1024500067C1002381F08091AD06AA2051F021E0F0
:10246000A21207C0182B181709F45AC11093AD0611
:1024700057C1812B10C0AA2021F031E0A31609F426
:102480004FC10E94BE2527C0002341F085E08A1578
:1024900008F446C1812F0E94592942C194E09A153F
:1024A00008F43EC118C0002349F0AA2099F3F701AF
:1024B000858180FF23C18F708583ECCFAA2059F0DE
:1024C000893309F02AC1FFEF27EE33E0F1502040B5
:1024D0003040E1F720C1812F0E94522921C1812F74
:1024E00086958695837019F0813061F019C10023BB
:1024F00021F08B2D912F937002C080E090E00E941C
:10250000882114C1002321F08B2D912F937002C0DC
:1025100080E090E00E94722109C1812F8370A9F5AB
:10252000011102C14B2D429546954770440F440F4F
:102530008B2D8F7090E09C01042E01C0220F0A9415
:10254000EAF7B4FE08C08FE090E001C0880F4A951A
:10255000EAF7809501C080E0169516951370123049
:1025600069F088F49091AE06113019F0822B89231E
:1025700002C0922B892B0E944129D6C0822B9091B8
:10258000AE068927F8CF822BF6CF002319F0812FD2
:10259000817001C08695882309F4C6C04B2D4295F1
:1025A00046954770440F440F8B2D8F7090E09C012F
:1025B000042E01C0220F0A94EAF7B4FE08C08FE08F
:1025C00090E001C0880F4A95EAF7809501C080E04D
:1025D000169516951370123059F078F4909169039E
:1025E000113019F0822B892309C0922B892B06C048
:1025F000822B90916903892701C0822B0E94EA28CF
:1026000093C01F70002339F0812F0E9435298B2D34
:102610000E94592989C08B2D0E945229812F0E9426
:10262000EF2882C08B2D92EF991681F1991538F021
:10263000E0EF9E1659F0F1EF9F1619F15BC023EF02
:10264000921659F134EF9316C1F054C0002381F073
:1026500084E08A1508F464C01F7181E090E0012EC7
:1026600001C0880F0A94EAF790916903892720C076
:1026700095E09A1508F454C0EFCF8091E40282FDF2
:102680001AC0002329F0812F8F7127C00023D9F3AE
:10269000812F8F710E94EF2843C0002341F01F71EA
:1026A00081E0012E01C0880F0A94EAF701C080E0A2
:1026B0000E94EA2835C0002399F01F71812F0E94E3
:1026C00035298091E40282FF07C0E8E01E9FC00127
:1026D000112483608093A206812F0E94352920C097
:1026E00081E00E94FC28F1E0FA15D0F482E00E941B
:1026F000FC2816C0002321F0AA2029F28B2D9ACEA7
:10270000AA2031F2893349F42FEF37EE83E02150CC
:1027100030408040E1F700C000008B2D0E94622F06
:1027200088EF8C0D843010F40E949E21DD2009F486
:1027300081C08091A20680FD7DC0F701128285953F
:10274000859585950E943529C7010E94DE0C8091F0
:10275000A2068595859585950E94EF286BC089E234
:1027600068CD053CECE51E0709F43FC0C0F4033C0E
:102770002CE5120781F1A0F5023C8CE5180709F061
:10278000BBCD9091740381E08927809374031092EC
:1027900054018091730381608093730364CA073C82
:1027A0009CE5190739F158F54EE954E263E974E202
:1027B00039C00B3C3CE5130761F180F549E654E272
:1027C0006BE574E22FC00F3CFCE51F0708F04BCA15
:1027D00061E082E02CC042EC54E26DEC74E222C075
:1027E0004DEC54E262EC74E21DC043E954E26EE940
:1027F00074E218C047E754E265E874E213C045E8A4
:1028000054E267E774E20EC04BE554E269E674E215
:1028100009C049EF5FE167E070E204C047E050E2C1
:1028200069EF7FE10E9441241ECA61E081E00E94BD
:10283000A92419CA2996E1E10C94CB3280E00895CD
:10284000A0E0B0E0E6E2F4E10C94B6327C015B017A
:102850006A01809151038A3018F001E010E002C053
:102860000AE010E0C1E0D0E0B501C701F60109952A
:10287000811115C021960C171D0794F0CC9F900173
:10288000CD9F300D300D112480E090E045E34A9556
:10289000F1F70000019682179307C1F7E5CF81E0B9
:1028A000CDB7DEB7EAE00C94D232A0E0B0E0EBE5C1
:1028B000F4E10C94B832C82F7B01D42F6901FB01DD
:1028C00060817181828193810E94EC206436710560
:1028D0008105910510F4DD2339F10C2E000CDD0B80
:1028E00001151105A9F0FE0183E0EE0FFF1F8A9587
:1028F000E1F7EA5EFE4F818192818F5C9C4F4081BF
:1029000050E00417150708F4A801B6010E949C3393
:10291000CE010E941F32882341F00E941721F70147
:10292000608371838283938381E0CDB7DEB7E8E073
:102930000C94D432A7E0B0E0E0EAF4E10C94BC32AD
:1029400086E0E4E7F3E0DE01119601900D928A95AE
:10295000E1F7809172038F8347E050E062E473E017
:10296000CE0101960E948F3341E0892B09F440E0AB
:1029700007E010E09E012F5F3F4F6DE473E086E0BB
:102980000E9455142796E4E00C94D8320F931F93BD
:10299000CF93DF93EC0145E050E067E373E00E94E2
:1029A0008F3341E0892B09F440E005E010E09E01FF
:1029B00069E273E082E00E945514DF91CF911F918C
:1029C0000F910895A1E0B0E0E8EEF4E10C94B2328A
:1029D000C62E4A015901682E880F7708C3010E944C
:1029E0001F32882309F466C0C30123E0880F991FB2
:1029F0002A95E1F7FC01EA5EFE4F438150E0411564
:102A0000510511F041E050E0FC01EA5EFE4F6481A7
:102A100075816F5C7C4FCE0101960E949C33F4015E
:102A200060817181828193810E94EC2064367105FE
:102A30008105910538F4B701C8010E94DD23998111
:102A40008917D1F10C2C000CDD08C6010E941F3241
:102A5000782E8823E1F0E114F104C9F0960183E0B7
:102A6000220F331F8A95E1F7F901EA5EFE4F438199
:102A700050E0E416F50608F4A701F901EA5EFE4FFE
:102A8000648175816F5C7C4FC5010E949C33B701E6
:102A9000C8010E94DD2391E02981281390E0D92EFE
:102AA000D72089F00E941721F4016083718382830B
:102AB000938309C0D12C02C0DD24D394A701B801AF
:102AC000C5010E949C338D2D2196EEE00C94CE32F0
:102AD000A5E0B0E0EEE6F5E10C94B8326B0185E0DC
:102AE000E82EF12C02E313E09E012F5F3F4F45E2F9
:102AF00053E061E080E00E94E214882349F095E011
:102B0000FE013196A0E2B3E001900D929A95E1F7B3
:102B100095E0E0E2F3E0D60101900D929A95E1F79D
:102B20002596E8E00C94D43280911F03811119C0DE
:102B300088EC90E02091E30027FD0AC0EFE3FCE978
:102B40003197F1F700C000000197A1F782E001C0C2
:102B500081E080931F03823021F40E94471E10926F
:102B60005F0381E090911F03913009F080E00895A8
:102B7000F894E82FE295EF70F0E031A1282F2F7044
:102B800081E090E001C0880F2A95EAF7982F909590
:102B9000932391A392A1892B82A3789408950F93F4
:102BA0001F930E949415882319F00E9417210EC0CC
:102BB0000E9417210091BC021091BD022091BE021B
:102BC0003091BF02600F711F821F931F1F910F91E1
:102BD0000895A4E0B0E0EFEEF5E10C94BE32609110
:102BE000490370914A0380914B0390914C030E94DA
:102BF000EC20643671058105910570F10E94CF15B6
:102C0000DC01CB010296A11DB11D89839A83AB83A0
:102C1000BC8380913F01909140018F5C9C4F40911B
:102C20003E0150E04530510510F044E050E0BE0157
:102C30006F5F7F4F0E949C3385E090E00E941F32BF
:102C4000882359F00E9417216093490370934A0327
:102C500080934B0390934C0381E02496E2E00C9424
:102C6000DA329091E30292FF0DC0282F28712830AC
:102C700019F4877F846006C0282F2471243011F452
:102C80008B7F886093FF0DC0282F2871283119F49D
:102C9000877E846106C0282F2471243111F48B7E35
:102CA00088612091E40220FF0DC0382F3871383040
:102CB00019F4877F816006C0382F3171313011F4EB
:102CC0008E7F886021FF0DC0282F2871283119F4CC
:102CD000877E816106C0282F2171213111F48E7EFB
:102CE000886194FD877E0895CF93DF9382389105A4
:102CF00069F1B0F48133910509F477C048F4893261
:102D0000910509F469C08A32910509F473C092C033
:102D10008533910509F45BC089339105B9F08AC008
:102D2000833E910591F138F4803E9105D1F0823EC9
:102D3000910531F17FC0863E9105D9F1873E91051D
:102D4000E9F1843E910509F075C028C02091E302A5
:102D500020FD5BC021FD59C02091E40223FD61C02C
:102D600069C08091E30280FD4AC08091E40280FF47
:102D70004CC08091E30284FD39C183EE90E038C1FC
:102D80008091E30282FF3EC0F4CF8091E30282FD96
:102D900039C08091E40280FD38C0EBCF8091E4021D
:102DA00081FF39C08091E30284FD20C187EE90E06D
:102DB0001FC18091E30283FF2BC0F4CF8091E30217
:102DC00083FD26C08091E40281FD25C0EBCF809178
:102DD000E30285FD26C022C08091E30285FD1EC06E
:102DE0008091E40283FF1DC00AC08091E30286FD4A
:102DF0001BC01DC08091E30286FD19C015C089E388
:102E000090E0F6C082EE90E0F3C080EE90E0F0C07B
:102E100086EE90E0EDC084EE90E0EAC085E390E0BD
:102E2000E7C089E290E0E4C08AE290E0E1C081E39B
:102E300090E0DEC0811532E5930708F05FC0811590
:102E400041E5940728F0982F8827816F906AD0C0B9
:102E5000883E910568F5803E910508F0C9C0883A22
:102E60009105B8F4853A910548F0855AE82FF0E0CD
:102E7000EA57FE4F808190E09064BAC0813091059E
:102E800009F4B1C008F4B2C08430910508F4AEC0B2
:102E9000AFC08F3B910508F0A9C0885AE82FF0E039
:102EA000EE0FFF1FE757FE4F808191819464A0C011
:102EB000811520E59207A0F0AC014370552721E071
:102EC00030E002C0220F331F4A95E2F786958695BF
:102ED00040E2849FC0011124822B932B9D6888C0FF
:102EE000811530E4930718F09F70906A81C09C01AF
:102EF0003A9521153F4108F47BC078C0EC01C1151B
:102F000086E5D807E8F5C11525E5D20748F08C2FEE
:102F10000E9431168F7190E0982F8827906268C0C8
:102F2000C11534E5D30728F09C2F8827846F906A59
:102F30005FC0AE01437055272C2F26952695C115ED
:102F4000D34578F481E090E002C0880F991F4A953C
:102F5000E2F740E2249F90011124822B932B9C687E
:102F600047C081E090E002C0880F991F4A95E2F7C0
:102F700040E2249F90011124822B932B9A6838C041
:102F8000C1152AE5D207F8F4C11539E5D30790F049
:102F90008C2F8F700E94311694E0D695C7959A9524
:102FA000E1F7CF70D0E0DC2FCC27D0699E01282B31
:102FB000C9011EC0C11548E5D407C0F09C2F882761
:102FC000806F906A15C0CE0190568115904270F4C2
:102FD0008D2F8F710E943116282F2F71CE019927C6
:102FE0009062922B05C081E090E002C080E090E00A
:102FF000DF91CF9108950E9417210895A1E0B0E0DC
:10300000E4E0F8E10C94B732EE24E394F12C0DE304
:1030100013E09E012F5F3F4F4DE253E064E083E0F9
:103020000E94E214B82E882309F43DC000E080E03D
:103030009091CC020917A0F5D090CD02D00E2D2D85
:1030400030E0A90145525D4F7A01E1E0F0E0EC0F7C
:10305000FD1FE00FF11D1081FA019081191BC12E97
:103060001C145CF4CA94F70180818F5F808360E058
:103070008D2D0E94F42D81E0F3CF912F17FD90E06C
:10308000191B112359F01F5FF70180818150808344
:1030900061E08D2D0E94F42D81E0F3CF0F5FC8CF4A
:1030A00081110E94FB178B2D2196E9E00C94D332FD
:1030B000CF9384E090E00E94FE32C82F82E290E03D
:1030C0000E94FE322C2F30E0A901582BCA01CF916B
:1030D000089580E090E00E940633883E9E4F19F4E8
:1030E0000E942824089580E00895AFE0B0E0EBE767
:1030F000F8E10C94B1329E012F5F3F4F79018AE0D5
:10310000D9011D928A95E9F70FE511E0690184E67E
:10311000682E81E0782EAA24A394B12C2AE6822E70
:1031200021E0922EF80180818F3F09F440C0F8948D
:10313000E82FE295EF70F0E021A18F70A50102C0A9
:10314000440F551F8A95E2F7CA01922F982B91A33D
:1031500092A18095892382A3789400C0E4E6F1E0EF
:10316000512C31E021912F3F89F0A22FA295AF7011
:10317000B0E090968C9190E02F7002C09595879565
:103180002A95E2F780FD02C0832F01C080E0582A13
:10319000330F8E169F0631F7D8018C918F3F11F0B7
:1031A0000E94B815B0EABA95F1F7F60150820F5FA8
:1031B0001F4FFFEFCF1ADF0A6016710609F0B2CF7A
:1031C0004AE050E0B70180EC92E00E948F33009714
:1031D00041F02AE0F701A0ECB2E001900D922A95AF
:1031E000E1F70091CB02892B49F081E0809317032E
:1031F0000E94232190931603809315038091170357
:10320000811102C0D12C22C0809115039091160328
:103210000E9408210597B0F310E0065F1C4F45E0BF
:1032200050E060EC72E0C8010E948F33892B59F0A6
:1032300085E0E0ECF2E0D80101900D928A95E1F78B
:10324000DD24D39401C0D12C109217030E94941551
:10325000E091CB029E01255F3F4F7901882309F45D
:103260007DC085E0D9011D928A95E9F70E2F10E007
:10327000065F1C4F809151038A3048F448E655E1BF
:10328000B701C8010E9420148823E9F10AC0809187
:103290001803909119030E940821843F914070F710
:1032A00043C046EC54E1B701C8010E9420148823B2
:1032B00051F14EEF57E1B701C8010E942014882355
:1032C00011F149EE55E1B701C8010E94201488238D
:1032D000D1F04AE954E1B701C8010E9420148823C3
:1032E00091F0109251038091CA0290E045E050E0C5
:1032F000B701865F9C4F0E948F3321E020931E030D
:10330000892BF1F4A6C0809151038F3F19F08F5F94
:1033100080935103809151038A3028F30E94232126
:10332000909319038093180380911E03882309F456
:1033300090C085E0F70111928A95E9F710921E037B
:10334000A091CA02B0E0A65FBC4F85E0FE013B96AB
:1033500001900D928A95E1F781E07CC00091CA024C
:1033600010E0065F1C4FF0E0E65FFC4F85E0A2E353
:10337000B3E001900D928A95E1F765E070E082E399
:1033800093E00E94DD238093310385E0E7E3F3E0DF
:10339000D80101900D928A95E1F74091E00250E04A
:1033A0006091DF0270E065527D4FC7010E949C333F
:1033B0008B8580933D0361E070E0C7010E94DD23AF
:1033C00080933C0380903E0390903F03A090400385
:1033D000B090410380911A0390911B03A0911C03AC
:1033E000B0911D0388169906AA06BB06D1F08092FB
:1033F0001A0390921B03A0921C03B0921D030E941B
:10340000941581110EC00E941721861A970AA80AE6
:10341000B90A8092BC029092BD02A092BE02B09204
:10342000BF0286E0E2E4F3E0A4E7B3E001900D928E
:103430008A95E1F710914803112349F080917203B6
:10344000811105C00E949E2980E00E94D92410931A
:10345000720380E08D292F96EFE00C94CD3280919D
:10346000610387FF11C08091E80082FD05C0809153
:103470005F038111F8CF11C08091E8008B770BC0FA
:1034800080915F03882349F08091E80080FFF8CFA6
:103490008091E8008E778093E8000895982F973008
:1034A00068F59093E900981739F07091EC0020913D
:1034B000ED005091F00003C0242F762F50E021FD45
:1034C00002C09F5FECCF3091EB003E7F3093EB006A
:1034D0003091ED003D7F3093ED003091EB00316095
:1034E0003093EB007093EC002093ED005093F000CC
:1034F0002091EE0027FDE5CF80E008958F70809346
:10350000E90081E008952091670330916803261750
:10351000370748F06115710539F42091E8002E77DE
:103520002093E80001C0B901FC0120E0611571059C
:1035300079F180915F038823F1F18530F1F1809179
:10354000E80083FD3CC08091E80082FD2EC08091A0
:10355000E80080FFEBCF2091F3008091F20090E033
:10356000922B6115710551F08830910538F4219145
:103570002093F100615071090196F3CF21E0089783
:1035800009F020E08091E8008E778093E800CECFAC
:103590002111CFCF0AC080915F03882361F085306D
:1035A00061F08091E80083FD0AC08091E80082FF0D
:1035B000F2CF80E0089582E0089583E0089581E0ED
:1035C00008950895BC0184E00E948B200895BC01F9
:1035D00083E00E948B20089580916903982F967054
:1035E000963011F4886001C0877F0E94EA28089510
:1035F0000F931F93CF93DF93EC01FC010190002008
:10360000E9F78F0101501109C017D10728F460E0D4
:1036100089910E943123F8CFDF91CF911F910F91B3
:103620000895EF92FF920F931F93CF93DF93EC01D6
:103630007B0164E670E088E70E94F02F8C01EC0EBD
:10364000FD1ECE15DF0561F017FD0AC0FE01849155
:1036500064E670E00E9463308C012196892B89F327
:103660000E94DA30C801CDB7DEB7E6E00C94D6325E
:10367000AAE2B0E0EEE3FBE10C94BD32E1E6F3E058
:1036800089E693E02091F10021938E179F07D1F7EF
:1036900080916203833009F463C030F4813071F0AB
:1036A000823009F49DC0B4C08A3009F489C08B30DF
:1036B00009F46EC0893009F0ABC020C0809161036D
:1036C000813A09F0A5C08091E800877F8093E800E7
:1036D0008091650390916603892B21F468E085E56C
:1036E00093E003C060E080E090E070E00E94831A05
:1036F0008091E8008B778093E8008AC08091610315
:10370000813209F085C0809165039091660300972E
:1037100019F0029709F07CC08091E800877F8093C0
:10372000E8008091E80082FD05C080915F0381116F
:10373000F8CF6EC02091F3008091F20090E0922BC0
:10374000029731F48091F100813011F0863021F43C
:103750008091F100809354038091E8008B7754C0EE
:1037600080916103813A09F053C080916503909183
:103770006603892B09F04CC08091E800877F809315
:10378000E8008091E80080FFFCCF80914E0137C0B7
:10379000809161038132E1F5809165039091660328
:1037A000892BB1F58091E800877F8093E8000E9423
:1037B0002F1A8091630380934E010E94462928C0EE
:1037C00080916103813221F58091E800877F8093A9
:1037D000E8000E942F1A809164038093530318C05D
:1037E00080916103813AA1F48091E800877F809302
:1037F000E8008091E80080FFFCCF80915303809324
:10380000F1008091E8008E778093E8000E942F1AE3
:103810008091E80083FFDFC1809161039091620392
:10382000492F50E04A30510508F0D5C1FA01EB5854
:10383000FF4F0C948233803821F0823809F0CBC1DD
:1038400008C080915D0390915E03992389F08260A6
:103850000FC0809165038F70873008F0BCC18093E2
:10386000E9008091EB0085FB882780F91092E90040
:103870009091E800977F9093E8008093F100109278
:10388000F10070C1282F2D7F09F0A5C1882319F000
:10389000823061F0A0C180916303813009F09BC147
:1038A000933009F080E080935E032EC08091630323
:1038B00081112AC0809165038F702FEF280F263069
:1038C00008F089C18093E9002091EB0020FF1CC023
:1038D000933021F48091EB00806214C09091EB0052
:1038E00090619093EB0021E030E0A90102C0440F09
:1038F000551F8A95E2F74093EA001092EA00809102
:10390000EB0088608093EB001092E9008091E80062
:10391000877F8093E8000E942F1A5DC181115BC1EF
:10392000109163031F778091E3008078812B80934F
:10393000E3008091E800877F8093E8000E942F1ABF
:103940008091E80080FFFCCF8091E3008068809345
:10395000E300111102C082E001C083E080935F03A5
:103960003AC18058823008F036C12091630330910B
:1039700064032C3D53E0350779F583E08A838AE2BE
:1039800089834FB7F894DE01139620E03EE051E2C0
:10399000E32FF0E050935700E49120FF03C0E2953D
:1039A000EF703F5FEF708E2F90E0EA3010F0C79617
:1039B00001C0C0968D939D932F5F243149F74FBF6F
:1039C0008091E800877F8093E8006AE270E0CE0192
:1039D00001960E94831AB4C080916503909166039A
:1039E000432F552743305105A9F068F44130510564
:1039F00009F400C14230510509F0EDC08BE590E0BB
:103A0000E3E0F3E04BC04132510529F14232510568
:103A100089F1E1C0C901992781309105A1F058F0E1
:103A2000029709F0D8C0E0E7F3E0E4918E2F90E030
:103A3000E0E7F3E030C0EEE9F3E0E4918E2F90E0B0
:103A4000EEE9F3E028C0E8E8F3E0E4918E2F90E09F
:103A5000E8E8F3E020C08330910508F0BCC0880F8F
:103A6000991FFC01EE53FE4F0190F081E02D89E09B
:103A700090E014C08330910508F0ADC0FC01EE0F5A
:103A8000FF1FE454FE4F0190F081E02DDC01A754AC
:103A9000BE4F8C9190E0009709F49DC02091E80002
:103AA000277F2093E800209167033091680328174F
:103AB000390708F4C90140E0009789F120915F03BC
:103AC000222309F43DC02530D9F12091E80023FDDF
:103AD00037C02091E80022FD2FC02091E80020FF90
:103AE000EBCF4091F3002091F20030E0342B0097AF
:103AF00059F02830310540F444914093F10031965B
:103B000001972F5F3F4FF3CF41E02830310509F097
:103B100040E02091E8002E772093E800CDCF4111BE
:103B2000CDCF0AC080915F03882351F0853041F0EA
:103B30008091E80083FD04C08091E80082FFF2CF0D
:103B40008091E8008B778093E80045C0803809F0C9
:103B500042C08091E800877F8093E80080916003F5
:103B60008093F1008091E8008E77D3CE811133C02D
:103B700080916303909164039927029764F5809183
:103B8000E800877F8093E80010916303109360033F
:103B90000E942F1A111106C08091E30087FD02C018
:103BA00081E001C084E080935F0342E061EC81E04A
:103BB0000E944E1A42E261EC84E00E944E1A42E2F8
:103BC00061EC82E00E944E1A42E260EC83E00E94C7
:103BD0004E1A80915F038091E80083FF10C08091AE
:103BE000E800877F8093E8008091EB0080628093FB
:103BF000EB0005C082E190E0EEE5F3E04FCFAA963E
:103C0000E3E00C94D9321F920F920FB60F92112459
:103C10002F933F934F935F936F937F938F939F93D4
:103C2000AF93BF93CF93DF93EF93FF93C091E900DE
:103C3000CF708091EC00D82FD17080FDD0E8109229
:103C4000E9008091F000877F8093F00078940E94D3
:103C5000381B1092E9008091F00088608093F0009A
:103C6000CD2BCF70C093E900FF91EF91DF91CF9101
:103C7000BF91AF919F918F917F916F915F914F9184
:103C80003F912F910F900FBE0F901F901895E8ED68
:103C9000F0E080818E7F80831092E2001092DA0043
:103CA0001092E100A0EEB0E08C9181608C93808155
:103CB0008F77808319BCA7EDB0E08C918E7F8C93B9
:103CC00080818F7E8083109252030895A0E0B0E03F
:103CD000ECE6FEE10C94B832C8EDD0E088818F7E2E
:103CE0008883E7EDF0E080818160808384E082BF9B
:103CF00081E08093520388818E7F888302EE10E0FA
:103D0000F80110821092DA0081EEC82ED12CF60153
:103D1000108288818F7788838881806888838881F2
:103D20008F7D888319BC10925F03109260031092FC
:103D30005E0310925D0390EEE92EF12CF701808175
:103D40008B7F808388818160888342E060E080E0AF
:103D50000E944E1AF60180818E7F8083F801808157
:103D600081608083808188608083F70180818E7F7D
:103D70008083888180618883CDB7DEB7E8E00C94CA
:103D8000D4321F920F920FB60F9211242F933F93AC
:103D90004F935F936F937F938F939F93AF93BF9353
:103DA000EF93FF938091E10082FF09C08091E200D0
:103DB00082FF05C08091E1008B7F8093E1008091BC
:103DC000DA0080FF2AC08091D80080FF26C0809151
:103DD000DA008E7F8093DA008091D90080FF18C0CE
:103DE00080E189BD82E189BD09B400FEFDCF81E09B
:103DF00080935F038091520381110FC00E94471E80
:103E00000E94661E8091E20084608093E20005C0FB
:103E100019BC10925F03109252038091E10080FF61
:103E200017C08091E20080FF13C08091E2008E7F76
:103E30008093E2008091E20080618093E2008091B3
:103E4000D80080628093D80019BC85E080935F031E
:103E50008091E10084FF30C08091E20084FF2CC09B
:103E600080E189BD82E189BD09B400FEFDCF80916A
:103E7000D8008F7D8093D8008091E1008F7E809361
:103E8000E1008091E2008F7E8093E2008091E20069
:103E900081608093E20080916003882311F084E0C8
:103EA00007C08091E30087FD02C081E001C083E08C
:103EB00080935F0380915F038091E10083FF27C0BF
:103EC0008091E20083FF23C08091E100877F80938F
:103ED000E10082E080935F03109260038091E10033
:103EE0008E7F8093E1008091E2008E7F8093E200DC
:103EF0008091E20080618093E20042E060E080E037
:103F00000E944E1A8091F00088608093F000FF912B
:103F1000EF91BF91AF919F918F917F916F915F9141
:103F20004F913F912F910F900FBE0F901F901895BA
:103F30002091E4003091E50095E64091EC00842F5B
:103F4000817040FF23C08091E80080FD1DC08091FA
:103F50005F03882399F0853099F08091EB0085FD0F
:103F600011C04091E4005091E5002417350729F372
:103F7000915011F09A01E1CF84E0089582E0089514
:103F800083E0089581E0089580E008954091E8007D
:103F900042FFDDCF0895EF92FF920F931F93CF93CF
:103FA000DF937C018B010E94981F811119C0E701EA
:103FB00001151105A1F08091E80085FD0AC08091EE
:103FC000E8008E778093E8000E94981F882381F391
:103FD00007C089918093F10001501109E9CF80E079
:103FE000CDB7DEB7E6E00C94D63208958091540345
:103FF0000895E4E7F3E0248130E1231B08F420E096
:104000002483809173038160809373030895E4E7B0
:10401000F3E0248130E1230F08F42FEF2483809113
:1040200073038160809373030895539A8BB1877FE4
:104030009BB198602FB7F894EAE7F3E034E0E832F8
:10404000F30789F0319148E09BB9000000C037FFC9
:104050008BB9330F000000C000C000C08BB900C096
:104060004A9591F7EBCF2FBF8FE594E00197F1F7D9
:1040700000C000000895CF93DF9321E02093E90072
:104080002FEF3091E800215035FD06C035ED3A950F
:10409000F1F700002111F5CF2091E80025FF14C0B1
:1040A000EC0140E050E068E070E00E94CB1F80919E
:1040B000E8008E778093E80088E0FE01A5E5B3E094
:1040C00001900D928A95E1F7DF91CF910895FF92CB
:1040D0000F931F93CF93DF93EC01F62E042F122F33
:1040E0000E949415811105C0CD31D1057CF06D97EA
:1040F00003C0CD31D10554F4CE01880F991FC80FEC
:10410000D91FC658DC4FF98208831A83CDB7DEB7B2
:10411000E5E00C94D732809347067093490660938C
:10412000480680915F038430F9F48093E9008FEFB3
:104130009091E800815095FD06C095ED9A95F1F7B4
:1041400000008111F5CF8091E80085FF0DC040E0AF
:1041500050E063E070E087E496E00E94CB1F80911E
:10416000E8008E778093E800089587E797E79093BB
:104170000108809300089AE088E10FB6F894A895AA
:10418000809360000FBE90936000FFCF78941F92E1
:104190000F920FB60F9211248F939F93AF93BF93FB
:1041A0008091430690914406A0914506B091460641
:1041B0000196A11DB11D8093430690934406A093E0
:1041C0004506B0934606BF91AF919F918F910F9096
:1041D0000FBE0F901F901895CF92DF92EF92FF9233
:1041E0002FB7F894C0904306D0904406E09045065F
:1041F000F09046062FBFA7019601261B370B480BF0
:10420000590BCA01B901FF90EF90DF90CF9008954C
:104210009C014FB7F8948091430690914406A09179
:104220004506B09146064FBF821B930B08952FB7EA
:10423000F8946091430670914406809145069091F0
:1042400046062FBF08952FB7F894809143069091AA
:104250004406A0914506B09146062FBF08951F92CF
:104260000F920FB60F9211248F939F93AF93BF932A
:1042700080914206811113C08091430690914406BB
:10428000A0914506B09146064196A11DB11D8093AF
:10429000430690934406A0934506B0934606BF910B
:1042A000AF919F918F910F900FBE0F901F90189517
:1042B0009C01FC0132969FEF80E04191461789F006
:1042C0009F3F19F4411101C0982F8F5F8630A9F7E5
:1042D0009F3F39F0F901E90FF11D97FDFA956283CF
:1042E0000895089520914006309141062817390716
:1042F00071F09093410680934006E0913E06F09164
:104300003F06309721F00084F185E02D099508954E
:1043100020913C0630913D062817390771F09093A3
:104320003D0680933C06E0913E06F0913F063097B3
:1043300021F00680F781E02D099508950E949415DB
:10434000882359F0E0913E06F0913F06309729F01E
:104350000190F081E02D0995089580E008950F9374
:104360001F93CF93DF93C42FD22FFC018281882328
:10437000B1F040933B060E94232190933A0680932C
:10438000390680E28C0F883008F04DC0C77081E09C
:1043900001C0880FCA95EAF70E94592944C080914C
:1043A0003B06481330C08091390690913A060E942E
:1043B0000821883C910538F510E21D0FCD17B9F0A2
:1043C00080E28C0F883040F4C77081E001C0880F14
:1043D000CA95EAF70E945229183010F581E09D2F06
:1043E000977001C0880F9A95EAF70E945929802F8B
:1043F0000E9463291830B8F4D77081E001C0880F9B
:10440000DA95EAF70AC080E28C0F883060F4C77052
:1044100081E001C0880FCA95EAF70E94522903C0C3
:10442000802F0E946329DF91CF911F910F910895F2
:10443000CF93DF93C7E0D2E060E0CE010E941C334F
:104440002196C11584E0D807B9F7DF91CF9108957F
:104450001F93CF93DF93962F8430E8F46A30D8F41B
:104460004630C8F4632F122FC42FD0E0CC0FDD1FCD
:104470002CE0929FC00DD11D112498E7899FC00D9B
:10448000D11D1124CE0187960E941C33612FCE01CD
:1044900088960E941C33DF91CF911F910895A0E070
:1044A000B0E0E5E5F2E20C94B632A12CE12CF12C5F
:1044B000B12C00E010E0C0E0D0E06701C00ED11EDA
:1044C000FE01EE0FFF1FEC0DFD1DEA51F74F259188
:1044D00034914C2F6B2D8A2D0E9428222196C630B4
:1044E000D10571F7045F1F4FB3948AE0B812E3CF90
:1044F00088E7E80EF11CA39484E0A812D9CFCDB7C9
:10450000DEB7EAE00C94D2320F931F93CF93DF9380
:10451000843008F56A30F8F44630E8F4C42FD0E06F
:10452000CC0FDD1F2CE0629FC00DD11D112438E798
:10453000839FC00DD11D1124CE0187960E94FE32AB
:1045400090E0182F0027CE0188960E94FE32980135
:10455000282BC90102C080E090E0DF91CF911F912C
:104560000F910895843048F47A3038F4663028F496
:10457000462F672F0E948422089580E090E00895DE
:104580008091380690913706882389F0992369F045
:1045900062E070E084EE98E00E94111B892B19F014
:1045A000809137060895109237069091370681E082
:1045B00089270895809138068823F9F00E941721F1
:1045C000DC01CB01805A9541AF4FBF4F809333063A
:1045D00090933406A0933506B09336068091370643
:1045E00081110BC062E070E082EE98E00E94111B26
:1045F000892B19F481E0809337068091370608955E
:10460000CF93E82F20913106309132062B5234405F
:1046100040912804642F70E0C9010E949A32481B1F
:10462000842FEE2359F066E00E944033C82FC1501A
:10463000B0F060E080E20E943123F9CFA901480F79
:10464000511D4115524018F080E020E030E0280F65
:10465000311D255D3B4F3093320620933106CF91BB
:1046600008951F93CF93DF93162F8A3011F481E0C2
:1046700003C08D3021F480E00E94002382C0C091ED
:104680003106D091320696E0FE01ABE2B6E0019031
:104690000D929A95E1F7803E30F086E0FE0111928E
:1046A0008A95E9F70BC0F6E08F9FB00111246E5593
:1046B0007C4F46E050E0CE010E94E532111137C038
:1046C000C0913106D091320646E050E0BE018BE247
:1046D00096E00E948F33892BC9F19E012B52344002
:1046E000A90185E0569547958A95E1F781E090E02C
:1046F000BC0102C0660F771F4A95E2F7409129047A
:1047000050912A04462B572B2B5F3F4F65E036957F
:1047100027956A95E1F702C0880F991F2A95E2F75D
:10472000842B952B90932A04809329040FC0E09149
:104730003106F09132069F012A5F3F4F2E173F0747
:1047400009F4BECF808180958193F8CF9E012552D8
:10475000344040912804642F70E0C9010E949A32CD
:10476000481B463010F4240F311D211582E0380714
:1047700010F020E030E0255D3B4F3093320620936F
:104780003106DF91CF911F9108951F93CF93DF934F
:10479000EC01162FFE018491882329F0612F0E94DD
:1047A00031232196F7CFDF91CF911F9108950E9479
:1047B000C52381E00E9400230895FC01680F791F42
:1047C0008FEF91E3E617F70771F02191822728E038
:1047D00030E087FF03C0880F892701C0880F215070
:1047E0003109B9F7EFCF089586E290E00E941C33BB
:1047F0000895CF93C82F811102C06FEF01C062E20C
:1048000083E290E00E941C33C11102C06FEF01C02F
:1048100061E184E290E00E941C33C11102C06FEF9D
:1048200001C067E185E290E00E941C33CF910895BA
:1048300080E00E94F92360E070E0CB010E94F42345
:104840000E944F220E94182281E00E94F9230895BD
:1048500083E290E00E94FE32823281F484E290E0B2
:104860000E94FE32813151F485E290E00E94FE32D6
:1048700091E0873109F090E0892F01C080E08170DC
:104880000895882311F0FA0101C0FB0109950895EC
:1048900090917403937071F0809375036093760325
:1048A000453608F044E64093770380917303282B44
:1048B000209373030895E4E7F3E0438120E1421B72
:1048C00008F440E0818121E0628190E00E94482468
:1048D0000895E4E7F3E0438120E1420F08F44FEF4D
:1048E000818121E0628190E00E9448240895E4E7FC
:1048F000F3E0628120E1621B08F460E0818121E045
:10490000438190E00E9448240895E4E7F3E0628147
:1049100020E1620F08F46FEF818121E0438190E094
:104920000E9448240895E4E7F3E0818190E021E0CB
:104930004381628108970E9448240895E4E7F3E0E8
:10494000818190E021E04381628108960E944824A1
:104950000895909174039370A1F0811102C0946046
:1049600007C0873010F0986103C0880F880F982B1C
:10497000909374031092540180917303682B609399
:10498000730308958091740386958695815009F488
:1049900086E061E00E94A9240895809174038695C1
:1049A00086958F5F873008F081E061E00E94A9243E
:1049B00008958093500180917403837080934F0118
:1049C0000E94152083E0809354010895CF92DF92D6
:1049D000EF92FF920E94CF1560936A0370936B036E
:1049E00080936C0390936D0320917203211109C091
:1049F00020917403322F337021F0322F3695369583
:104A000001C030E0209154012130A1F028F0223083
:104A1000A9F02330B9F042C01092510160936E03A7
:104A200070936F03809370039093710381E0809380
:104A3000540134C0832F0E949E2930C0832F0E94CE
:104A4000D9242CC080917303882351F046E050E0B4
:104A50006CE170E084E793E00E940C3310927303E2
:104A6000C0906E03D0906F03E0907003F0907103DC
:104A70000E949415882329F0C701B6010E94EC20FA
:104A800006C00E94CF156C197D098E099F096031FF
:104A900071058105910510F010925401FF90EF907F
:104AA000DF90CF90089568EE7EEF80E090E00E9466
:104AB0003A3360E082E090E00E941C3360E083E0E3
:104AC00090E00E941C331092AE0660E084E090E01B
:104AD0000E941C3364E082E290E00E941C3360E09C
:104AE00085E090E00E941C3360E086E090E00E9448
:104AF0001C336FEF87E090E00E941C3340E050E0F1
:104B0000BA0188E090E00E942E3360E08DE090E0F2
:104B10000E941C3340E050E0BA0188E190E00E941E
:104B20002E3360E087E190E00E941C3340E050E0CB
:104B3000BA018CE190E00E942E3360E070E080E2E8
:104B400090E00E943A3340E050E0BA0188E190E002
:104B50000E942E3380E00E94F9230E94182440E036
:104B600050E0BA018FE090E00E942E3340E050E028
:104B7000BA0183E190E00E942E3308958091AD0642
:104B800081111092AD06089580959091AC0689230D
:104B90008093AC0608959091AC068091AB06982B5B
:104BA00090934A068091AD06882389F0892B8093E3
:104BB0004A06ECE4F6E097E080E0915029F021917C
:104BC0002223D9F38F5FF9CF81110E94BE2548E0DF
:104BD00050E063EA76E08AE496E00E948F33892B06
:104BE000A9F088E0EAE4F6E0A3EAB6E001900D92CD
:104BF0008A95E1F7E0913E06F0913F06309731F05B
:104C00000280F381E02D8AE496E00995089580E022
:104C100090E00E94882180E090E00E947221109232
:104C2000AB060E94CB2508958091A1069091700655
:104C3000891719F08F5F8770FBCF08950F931F932B
:104C4000CF93DF9380916F0682958F7009F05AC0E1
:104C500080916C06882309F455C08091A1061091BB
:104C6000700660916A0670916B06C0916D06D091D6
:104C70006E0691E06F3F09F090E0292F06E0811762
:104C800009F440C0209721F07F3F21F030E003C0BD
:104C900031E001C0322F90E030FD31C0089FF001BB
:104CA000099FF00D1124DF01AF58B94F11963C91C7
:104CB0001197371324C03C91361321C012963C91B2
:104CC000129731111CC013964D915C9114974C1B97
:104CD0005D0B483C510598F480916F068F708061A0
:104CE00080936F06EA58F94F80818F7080618083CE
:104CF0008AE696E00E94DE0C0E94142603C001960C
:104D00008770BDCFDF91CF911F910F910895CF9202
:104D1000DF92FF920F931F93CF93DF936C0100916B
:104D200069038091AE06082BC7E0D0E010E0C8010F
:104D30000C2E02C0959587950A94E2F780FD04C079
:104D40002197A8F7F12C09C0FC2EB6018C2F0E94E8
:104D5000B2220E947416019799F38F2DDF91CF91A3
:104D60001F910F91FF90DF90CF900895CF93DF9325
:104D7000EC010E948726BE010E94B2220E94741696
:104D8000DF91CF910895CF93FC01808191812381A0
:104D90003481232B31F09F3F31F491E08F3F19F4A0
:104DA00003C091E001C090E0C92FC17090FD1CC00C
:104DB000808191810E94B62692959F70963079F0FD
:104DC00010F4925001C09A50923088F4803F71F0F4
:104DD00018F4883E60F40AC0843F49F407C0883E56
:104DE00028F0813F21F402C0C0E001C0C1E08C2F57
:104DF000CF910895A1E1B0E0E0E0F7E20C94B53284
:104E00008C0185E0F801DE011D9601900D928A95D6
:104E1000E1F7F801E28090916A0660916B0640919B
:104E20006D0650916E064115510531F06F3F31F41A
:104E300081E09F3F19F403C081E001C080E0F82FBA
:104E4000F1709F2E80FD1BC1F80130812181C3804C
:104E5000D4808AE6A82E86E0B82EF0906C06F60183
:104E6000E41BF50BFF2009F4C7C080916F06E83CF6
:104E7000F10508F092C0482F407F09F051C062133D
:104E800011C093130FC0FE2CE1100CC08F70806115
:104E900080936F06C5010E94DE0C80916F06F801B9
:104EA00085832AC1C114D10431F02F3F31F481E050
:104EB0003F3F19F403C081E001C080E080FD03C0E2
:104EC00081E08E2502C080E090E0F82FF170FF2E87
:104ED00080FF1CC08091A1064091700656E08417A7
:104EE00009F4E8C090E0589FF001599FF00D11249B
:104EF000EF58F94F6181261306C06081631303C028
:104F00006281E61203C001968770E9CFFE2CEE2085
:104F100009F4F2C080916F06816080936F0649C0EA
:104F2000621306C0931304C0E11002C0F80186C0EA
:104F3000C8010E94C326882351F1EE2041F120913F
:104F40006F06822F82958F7090E0029774F08091A7
:104F50006A0690916B0698878F831986DB86CA86CE
:104F60002C87CE0107960E94DE0C86E0F801AAE6A7
:104F7000B6E001900D928A95E1F70E941E260AC0C4
:104F80006217C9F0C8010E94C32681111EC0C80162
:104F90000E94DE0CFF24F394AFC0482F407F81F7BE
:104FA0008AE696E00E94DE0C86E0F50111928A9571
:104FB000E9F7F12CA1C09313E5CFE110E3CFF8019D
:104FC0008583C8010E94DE0C54C0EE2001F32091BD
:104FD0006F06822F82958F7090E0029734F2809155
:104FE0006A0690916B069A8389831B82DD82CC824C
:104FF0002E83CE010196B7CFE83CF105D0F5FE2C0B
:10500000EE2029F2621327C0931325C020916F066A
:1050100020FD18C0822F82958F70482F50E04115D7
:10502000510581F0F80125834F30510541F08F5F24
:10503000982F9295907F822F8F70892B8583C8013E
:105040000E94DE0C86E0F801AAE6B6E001900D921F
:105050008A95E1F751C0C8010E94C326811185CF0E
:1050600080916F06816080936F06C8010E94DE0CFC
:1050700043C086E0F50111928A95E9F73DC0EE2024
:1050800009F485CFC8010E94C326F82E882309F4AD
:105090007ECF86E0F801AAE6B6E001900D928A95EF
:1050A000E1F780916A0690916B060E94B6260E94F5
:1050B0001E2622C03D872E878D859E850E94B6269E
:1050C000292F22952F70223028F49F7039F08111FA
:1050D00005C00BC0243028F49F7049F4805E8830EE
:1050E00020F0C8010E94DE0C9F2CF92C05C0F801AD
:1050F0009581907F99F7F9CF8F2D6196EBE00C9415
:10510000D132292F9A3078F5863068F590E036E074
:10511000239F800D911D1124682F677023E09695C1
:1051200087952A95E1F7FC01EE0FFF1FE80FF91FA5
:10513000EE5AF94F40E050E080E0219130E0062E39
:1051400002C0369527950A94E2F721703327042E82
:1051500001C0220F0A94EAF7822B4F5F5F4F433062
:10516000510559F7089580E00895292F9A3088F560
:10517000863078F590E036E0239F800D911D112454
:10518000282F277051E001C0550F2A95EAF723E038
:10519000969587952A95E1F7FC01EE0FFF1FE80F22
:1051A000F91FEE5AF94F20E030E070E04081CB016A
:1051B000022E02C0969587950A94E2F78170819538
:1051C00084278523842781932F5F3F4F2330310528
:1051D00069F70895809369030E940726089521E0E6
:1051E00030E001C0220F8A95EAF72095809169038B
:1051F00082230E94EA2808952091A20680958223A6
:105200008093A206982F977099F430E0482F082ECB
:10521000000C550B2417350759F09091E40292FFCA
:1052200007C08595859585950E94EF281092A20666
:105230000895CF93C091E402C2FB992790F9981783
:1052400091F080FBC2F9C093E4026091E30284E034
:1052500090E00E941C336C2F82E290E00E941C338D
:1052600082E00E94FC28CF91089521E030E001C047
:10527000220F8A95EAF780916903822B0E94EA281F
:1052800008958093AE060E94072608951092AC06FA
:1052900086E0ECE4F6E0DF011D928A95E9F70E94D2
:1052A00007260895882321F00E94C4250E94CB255B
:1052B0000895882339F09091AC06892B8093AC0631
:1052C0000E94CB2508951F93CF93DF93182F893326
:1052D00019F0C0E0D0E002C0C0E5D0E0812F0E940C
:1052E000952F209741F08FE99FE00197F1F700C0DB
:1052F00000002197F6CF812F0E94622FDF91CF917E
:105300001F9108950E9467200895FF920F931F93A5
:10531000CF93DF93182F062FF42EC0E0D0E02F2D6F
:10532000402F612FCE010E9482292196CA33D105D8
:10533000B1F7CDB7DEB7E5E00C94D732A0E0B0E02E
:10534000E4EAF9E20C94AE32782E80915001871194
:105350000DC020917403237030E040914F0150E064
:1053600081E02417350719F480E001C081E08170E5
:10537000809353018091790390915201981739F0ED
:105380008093520140E060E080E00E94852933E094
:10539000731249C0C09151018CE0C89FC02D1124E7
:1053A000DCE0DC0FDB3308F0DAE30E94941588239D
:1053B00019F0DE3108F0DDE10E949415811103C07F
:1053C000CD3108F4CDE1609178036695669521E0D2
:1053D000620F08F46FEF80916E0390916F030E944B
:1053E000BE2EF82ECD1708F045C00C2F10E0F801A6
:1053F000E858FD4F908180915201892391F060918E
:10540000750370917603809177032F2D4C2F0E94A6
:10541000822E0E94D82E462F282F672FC8010E9467
:105420008229CF5FDFCF371538F181E07812F7C0DE
:1054300080915101CCE08C9FC02D1124DCE0DC0F69
:10544000DB3308F0DAE30E949415811108C10E9451
:105450009415882309F408C160917503709176034F
:10546000809177030E94D82E162F072FF82ECD1784
:1054700008F4FFC08D2FD0C095E0791609F45CC107
:10548000791608F4ADC1E6E07E121FC28091530187
:10549000882329F040E060E080E00E948529809127
:1054A00051019CE0899F802D11246CE0662E680ECE
:1054B0008AE3861510F45AE3652E0E949415811133
:1054C000E4C10E94941540916E0350916F03609166
:1054D0007003709171038091CD069091CE06A091DA
:1054E000CF06B091D00684179507A607B70708F036
:1054F00092C06091750370917603809177030E944A
:10550000D82E562E472E382E0FEA16E0C8ECD1E0E2
:1055100035E0832E38E0932E5E016E017801212C58
:10552000F7018081F601882309F4B6C18081232D1B
:10553000452D642D90E00E948229F5018581232D5F
:10554000452D642D90E00E948229F701818181938D
:105550007F012394FFEFCF1ADF0A21E0A21AB108DE
:1055600032E02312DDCFF8018281882309F4A1C142
:105570008A81232D452D642D90E00E9482298B8104
:10558000232D452D642D90E00E9482292091550104
:1055900030915601289DC001299D900D389D900D98
:1055A0001124875E994C9093560180935501890F81
:1055B000837091E009F090E0F80192830D5F1F4F36
:1055C000269624E032E02C173D0709F0A5CF209164
:1055D000780330E1230F08F42FEF60E1822F90E091
:1055E0000E94BE2EBC0188EB9BE00E949A32809103
:1055F0006E0390916F03A0917003B0917103860FB9
:10560000971FA11DB11D8093CD069093CE06A09348
:10561000CF06B093D006862D0E94C82E0CC08715E9
:10562000D0F180915301882329F040E060E080E0D0
:105630000E94852980E0909151019F5F90935101D4
:1056400081117DC182E080935401809153018111C9
:1056500076C1711074C183E08093540170C1DE3152
:1056600008F4F5CEDDE1F3CECD3108F0F5CECDE195
:10567000F3CEEC2FF0E0DF01A858BD4F8C91909154
:105680005201982331F02F2D412F602FCF010E941E
:105690008229CF5FECCEC09151018CE0C89FC02D14
:1056A0001124DCE0DC0FDB3308F0DAE30E94941510
:1056B000882319F0DE3108F0DDE10E949415811194
:1056C00003C0CD3108F4CDE100917503109176034C
:1056D000F090770360917803669566956695809162
:1056E0006E0390916F030E94BE2E0E949D2E8058E3
:1056F00087FD8195880F282F3F2D239F212D112471
:10570000822FB8010E94D82E162F072FF82ECD1702
:1057100008F0B0CEEC2FF0E0DF01A858BD4F8C911F
:1057200090915201982331F02F2D412F602FCF01FE
:105730000E948229CF5FEBCFC09151018CE0C89FBE
:10574000C02D1124DCE0DC0FDB3308F0DAE30E942B
:105750009415882319F0DE3108F0DDE10E949415DC
:10576000811103C0CD3108F4CDE1609178036695D5
:10577000669580916E0390916F030E94BE2E182F44
:1057800080E4810F0E949D2E70E8F72EF80E812F85
:105790000E949D2EE0E8BE2EB80ECD1708F06ACE0E
:1057A000CC2ED12CF601E858FD4F9081809152010A
:1057B0008923A1F06091750370917603809177033E
:1057C000E12E0C2F2B2D4F2D0E94052E0E94D82E3E
:1057D000462F282F672FC6010E948229CF5FDDCF79
:1057E000C09151018CE0C89FC02D1124DCE0DC0F7A
:1057F000DB3308F0DAE30E949415882319F0DE31D8
:1058000008F0DDE10E949415811103C0CD3108F448
:10581000CDE160917803669580916E0390916F035E
:105820000E94BE2E182FCD1708F024CEEC2EF12C9E
:10583000F701E858FD4F908180915201892319F1B9
:10584000F701EE0FFF1FE853FE4F25AD30E0205269
:105850003109F701EE0FFF1FEC5FFD4F408150E073
:1058600040575109609175037091760380917703D9
:10587000012F0E94332E0E94D82E462F282F672FEB
:10588000C7010E948229CF5FCECF9DE1961508F017
:1058900018CE4DE1642E15CE808120E040E060E01E
:1058A00090E00E948229F501858120E040E060E0DF
:1058B00049CE8A8120E040E060E090E00E948229A9
:1058C0008B8120E040E060E05ECEFFEF7F1231C0D0
:1058D00080916E0390916F03A0917003B09171035A
:1058E00088279C70AA27BB272AE0B695A79597958D
:1058F00087952A95D1F782309105A105B10571F000
:1059000083309105A105B10569F040E00197A1053B
:10591000B10511F060E008C064E102C044E160E05C
:1059200080E003C044E164E184E10E94852982E0D3
:1059300093CE809151018F5F8093510183CECDB77B
:10594000DEB7E2E10C94CA32E4E7F3E089E0808359
:105950008091580190915901A0915A0181839283BD
:10596000A3838FE784838FEF858346E050E06CE16B
:1059700070E0CF010E940C33109273030895A7E1E9
:10598000B0E0E5ECFCE20C94BD324B8B5C8B6D8B94
:105990007E8B8F8B61111092AB0686E09E01235F98
:1059A0003F4FD901E82F1D92EA95E9F795E0FE01F6
:1059B0007396D90101900D929A95E1F79C894E89D1
:1059C0005F897B897D879E876F87598B488BF9011B
:1059D000DE01179601900D928A95E1F7CE010796A8
:1059E0000E94FA2681113EC086E0FE013796DE0154
:1059F000119601900D928A95E1F7FF81E8856A85FD
:105A00007B856115710531F0EF3F31F481E0FF3F97
:105A100019F403C081E001C080E080FD23C0209123
:105A2000700630E0C9010196877099274091A10660
:105A300050E08417950779F1F983EA837D836C83BD
:105A400096E0929FD001939FB00D1124AF58B94FAB
:105A5000FE01319601900D929A95E1F780937006C0
:105A60000E94142616E08091A10690917006891775
:105A7000F9F0189FC00111248F58994F0E94FA26FF
:105A80008823B1F08091A10690E001968770992754
:105A90008093A106E8CF0E944629109270061092CA
:105AA000A106EAE6F6E086E0DF011D928A95E9F7B5
:105AB0006796E3E00C94D932982F92959F7019F075
:105AC000892F24E001C020E0982F9695969511F03B
:105AD0002E5F892F982F969509F02F5F822F0895BA
