:100010000C94DC050C94DC050C94DC050C94DC05DC
:100020000C94DC050C94DC050C94E9180C94A417D2
:100030000C94F11A0C94DC050C94DC050C94DC0592
:100040000C94DC050C94DC050C94DC050C94DC05AC
:100050000C94DC050C94881A0C94DC050C94DC05DB
:100060000C94DC050C94DC050C94DC050C94DC058C
:100070000C94DC050C94DC050C94DC050C94DC057C
:100080000C94DC050C94DC050C94DC050C94DC056C
:100090000C94DC050C94DC050C94DC050C94DC055C
:1000A0000C94DC050C94DC050C94DC05AA0AAD0A62
:1000B000E00AF80AFE0A090B0C0B0C0B0C0B370CB0
:1000C000370C890B8B0B900BB40BD50BD80BDB0BC0
:1000D000FE0B1D0C280CD70E4B0FDF0EA90EAD0E1C
:1000E000E30EB00EE60EF10EBB0E410FBF0EF50E85
:1000F000C30EF90E230FC70EFD0E2D0FCD0E030FED
:100100000D0FB40EEA0EB70EED0ED20E080F190F3A
:10011000390F3B0FA50EDB0E540F780F860F8B0F98
:10012000920F970F9C0FA10FA60FAB0FB00FB50F3B
:10013000BA0FBD0FC00FC30F5812581258125812E1
:1001400058125812451045107B107B10FE102312D8
:10015000231223121A119011A311A311212B482B42
:10016000F12C482BF12C942BB72BF12CAC2CBC2C64
:1001700000DA0281FFD9F1DB20A4A62EAF00A0C0D7
:10018000D30000A1C8D30000AED580A81F408D14B5
:100190002000808182838485868788898A8B8C8DE4
:1001A0008E8F9091929394A0A1A2A3A4A5A6A7A894
:1001B000A9AAABACADAEAFB0B1B2B3B4C0C1C2C30B
:1001C000C4C5C6C7C8C9CACBCCCDCECFD0D1D2D377
:1001D000D40000000000000000000000000000004B
:1001E000000000000000000000000000000000000F
:1001F0000000000000007E0F00D4FFFFFFC70000DA
:10020000007800000000000000002A2B28000000F9
:1002100000000000000000000000000000290000B5
:1002200000002C1E3420212224342627252E362D92
:100230003738271E1F202122232425263333362E2C
:1002400037381F0405060708090A0B0C0D0E0F109E
:100250001112131415161718191A1B1C1D2F3130E3
:10026000232D350405060708090A0B0C0D0E0F1087
:100270001112131415161718191A1B1C1D2F3130C3
:10028000354C00AF00AE35001E001F0020002100DD
:1002900022002B0014001A00080015001700290086
:1002A00004211624072809220A00E1001D001B0072
:1002B000060019000500E000E200E30021522800DA
:1002C000A8002E00270026002500240023002D0072
:1002D000130012000C0018001C00340033310F34DE
:1002E0000E380D320B00E5003800370036001000E4
:1002F0001100E400E600E7002A002C42AE0021785D
:10030000010001000100010001002278000000004E
:100310000000000000000100E200E000E100E30056
:100320003900010000000000000000000000010092
:1003300001000100010001000100010001000100B5
:100340000100010001002A0000000000520000002E
:100350004B002A004C004F00510050004E0001009D
:10036000000000000000000000000100010001008A
:1003700001000100010001003A003B003C003D008B
:100380003E0035001E001F00200021002200010059
:100390001E021F0220022102220201002E002D0057
:1003A0002E022F02300201000100010001000100B5
:1003B0000100440043004200410040003F0045006E
:1003C00027002600250024002300310227022602F0
:1003D00025022402230201003100330233003000E1
:1003E0002F00010001000100010001000100A9002F
:1003F000AA00AB00AC00A900AA00AB00AC00A900A9
:10040000AA00AB00AC0005010980A1018503190118
:100410002AB700150126B700950175108100C005A7
:100420000C0901A101850419012AA002150126A0C9
:1004300002950175108100C00660FF0961A10109E4
:1004400062150026FF0095207508810209631500DA
:1004500026FF00952075089102C005010906A1013B
:10046000050719E029E715002501950875018102A6
:100470009501750881010507190029FF150026FF60
:100480000095067508810005081901290515002544
:1004900001950575019102950175039101C009024D
:1004A0005B00030100A0FA09040000010301010040
:1004B0000921110100012244000705810308000100
:1004C00009040100020300000009211101000122BA
:1004D0002200070582032000010705030320000115
:1004E000090402000103000000092111010001229A
:1004F0003200070584032000011201000200000001
:100500000832FC8702010001020001160353006F4C
:100510000066006C0065002000430068006F006307
:10052000000000140342007200690061006E0020A8
:10053000004C006F00770000000403090407087FE7
:100540000807003E5B4F5B3E003E6B4F6B3E001C5E
:100550003E7C3E1C00183C7E3C18001C577D571CFE
:10056000001C5E7F5E1C0000183C180000FFE7C303
:10057000E7FF00001824180000FFE7DBE7FF00306A
:10058000483A060E00262979292600407F050507EE
:1005900000407F05253F005A3CE73C5A007F3E1C47
:1005A0001C0800081C1C3E7F0014227F2214005FE0
:1005B0005F005F5F0006097F017F00006689956A22
:1005C0000060606060600094A2FFA2940008047E56
:1005D00004080010207E20100008082A1C080008CB
:1005E0001C2A0808001E10101010000C1E0C1E0CF7
:1005F0000030383E383000060E3E0E060000000087
:1006000000000000005F0000000007000700001469
:100610007F147F1400242A7F2A12002313086462A7
:1006200000364956205000000807030000001C2235
:100630004100000041221C00002A1C7F1C2A0008E7
:10064000083E08080000807030000008080808080C
:10065000000000606000002010080402003E5149C4
:10066000453E0000427F4000007249494946002152
:1006700041494D33001814127F1000274545453974
:10068000003C4A49493100412111090700364949D6
:10069000493600464949291E0000001400000000A8
:1006A00040340000000008142241001414141414F3
:1006B000000041221408000201590906003E415D74
:1006C000594E007C1211127C007F49494936003E88
:1006D00041414122007F4141413E007F494949411A
:1006E000007F09090901003E41415173007F08085C
:1006F000087F0000417F4100002040413F01007F12
:1007000008142241007F40404040007F021C027FCD
:10071000007F0408107F003E4141413E007F0909EF
:100720000906003E4151215E007F09192946002635
:10073000494949320003017F0103003F4040403FE7
:10074000001F2040201F003F4038403F0063140836
:100750001463000304780403006159494D43000009
:100760007F41414100020408102000004141417FC7
:100770000004020102040040404040400000030722
:100780000800002054547840007F28444438003842
:100790004444442800384444287F003854545418B2
:1007A0000000087E09020018A4A49C78007F0804B9
:1007B00004780000447D4000002040403D00007F60
:1007C000102844000000417F4000007C0478047839
:1007D000007C0804047800384444443800FC1824A1
:1007E00024180018242418FC007C0804040800487D
:1007F000545454240004043F4424003C4040207CD2
:10080000001C2040201C003C4030403C004428108C
:100810002844004C9090907C004464544C44000068
:100820000836410000000077000000004136080053
:10083000000201020402003C2623263C00000000C6
:10084000000000404040F0F8F8FF38FFF8F83FF8AB
:10085000F8FF38FFF8F8F0404040000000000000CA
:1008600080C0C0C0800000C0C08000000080C0C048
:1008700000C0C0000080C0C00000000000C0C0C0B8
:10088000C0C000C0C0000000000000000000000068
:100890000000000000000000000000000000000058
:1008A0000000000000000000000000000000000048
:1008B000000000000000000000000000C0F0F8FC94
:1008C0003E1E06010000007F4141417F007F414103
:1008D000417F000080C0E07E5B4F5BFEC00000C037
:1008E00000DCD7DEDEDED7DC00C000000000000048
:1008F00000000000000000000000000000000000F8
:10090000000000494949FFFFFFFFE0DFBFBF00BF14
:10091000BFDFE0FFFFFFFF49494900000000001F63
:100920003F6060E0BF1F007F7F071E381E077F7F8C
:10093000007F7F0E1F3B716000000000007F7F0C76
:100940000C0C007E7E007F7E0303007F7E03037E0F
:100950007E03037F7E000F3E703C063C703E0F001E
:10096000327B49493F7E007F7E0303001E3F696959
:100970006F2600000000000000000000030F1F3F72
:100980003C7870600000007F4141417F007F414121
:10099000417F00307B7F7830202030787F3B000320
:1009A000000F7F0F0F0F7F0F0003000000000000FB
:1009B0000000000000000000000000000000000037
:1009C000000000010101070F0F7F0F7F0F0F7E0F47
:1009D0000F7F0F7F0F0F07010101000000000000D3
:1009E0000000000001010000000000000000000005
:1009F00000000000000000000000000000000000F7
:100A000000000000000000000000000000000000E6
:100A100000000000000000000000000000000000D6
:100A200000000000000000000000000000000000C6
:100A300000000000000000000000000000000000B6
:100A400000000000000000000000000000000000A6
:100A50000000000000000000000000000000000096
:100A60000000000000000000000000000000000086
:100A70000000000000000000000000000000010174
:100A8000010101010101010202020202020202024D
:100A9000030303030303030304040404040404051D
:100AA00005050505060606060607070707070808E1
:100AB0000808090909090A0A0A0B0B0B0C0C0C0D92
:100AC0000D0D0E0E0E0F0F0F10101111111212132B
:100AD000131414151516161717181819191A1A1BA6
:100AE0001B1C1D1D1E1E1F20202122222324242505
:100AF0002626272829292A2B2C2D2D2E2F3031323E
:100B000032333435363738393A3B3C3D3E3F40414D
:100B100042434445464748494A4C4D4E4F50515335
:100B200054555658595A5B5D5E5F616264656668EC
:100B3000696B6C6D6F7072737577787A7B7D7E8070
:100B400082838587888A8C8E8F91939596989A9CBC
:100B50009EA0A2A3A5A7A9ABADAFB1B3B5B7BABCD0
:100B6000BEC0C2C4C6C9CBCDCFD1D4D6D8DBDDDFA1
:100B7000E2E4E7E9EBEEF0F3F5F8FAFDFF0011240B
:100B80001FBECFEFDAE0DEBFCDBF12E0A0E0B1E0E4
:100B9000ECE1FEE602C005900D92A83BB107D9F743
:100BA00027E0A8EBB2E001C01D92A139B207E1F73E
:100BB0000E94DE050C940C370C940000A8E2B0E013
:100BC000E4EEF5E00C94373685B7806885BF85B7CD
:100BD000806885BF84B7877F84BF0FB6F894A895D7
:100BE00080916000886180936000109260000FBE69
:100BF00090E080E80FB6F8948093610090936100D4
:100C00000FBE82E493E29093B9028093B8020E94EF
:100C1000E8170E948E188091E20084608093E200C1
:100C200078948091BB048823A1F01091E9001F7093
:100C30009091EC00892F817090FD80E8182B109224
:100C4000E9008091E80083FD0E943E2A1F70109306
:100C5000E90082E084BD93E095BD9AEF97BD809353
:100C60006E001092BA021092BB021092BC02109257
:100C7000BD020E94991B811102C00E94BB1C88EC1E
:100C800090E02091E30027FD0EC0AFE3BCE911978F
:100C9000F1F700C000000197A1F70E94E817109239
:100CA000BB0480E001C081E08093F0038093F103F6
:100CB0008093000181110E94BD349091000181E078
:100CC00098279093DE02B82FB91BB093BF02909182
:100CD00000018093DF02909100018093BE02809119
:100CE0000001811106C084EF80930C0185EF809391
:100CF0000B0180910C01E82FE295EF70F0E041A12B
:100D0000282F2F7081E090E0BC0102C0660F771F92
:100D10002A95E2F79B01362F3095342331A332A177
:100D2000232B22A320910B01E22FE295EF70F0E03C
:100D300031A12F7001C0880F2A95EAF7982F90955E
:100D4000932391A392A1892B82A38FE891E001972D
:100D5000F1F700C000007091DF02A0EEB2E00CE0FD
:100D600011E04BE051E060E0671751F1F80121918B
:100D70008F01822F82958F7090E0FC0180A190E01E
:100D80002F7002C0959587952A95E2F78170FA0138
:100D90009191AF01292F22952F7030E0F90120A108
:100DA00030E09F7002C0359527959A95E2F720FFB5
:100DB00002C092E001C090E0892B8D936F5FD4CF89
:100DC0008091000180910001882311F090E001C022
:100DD00095E09093CB0285E0891B8093CA0208E5D9
:100DE00011E09DE5E92E91E0F92ED8018D918D015C
:100DF0008F3F11F00E941225E016F106B1F70DE5C4
:100E000011E083E6E82E81E0F82EF80181918F0150
:100E10008F3F11F00E941225E016F106B1F78AE02B
:100E2000E7E0F3E0DF01282F1D922A95E9F7E0ECD7
:100E3000F2E0DF011D928A95E9F70E945E1F8111A1
:100E400002C00E946A1F82E090E00E948736809371
:100E5000CF0284E090E00E948F369093CE02809380
:100E6000CD020E949626BFEFE6E7F1E0B150E040E8
:100E7000F040E1F700C000000E9496268091070331
:100E800080FF08C06FEF7FEF80E090E00E94C336E4
:100E90000E94771A83E090E00E9487360E94052323
:100EA0000E94352D0E945E1F811104C00E946A1F9E
:100EB0000E94243181E08093E10648E050E068E13F
:100EC00070E089EC94E00E9477361092E106809100
:100ED000C9048C7F11F40E9424318091F00388238F
:100EE00011F082E001C080E08093020380E88093EB
:100EF000D1040E9473336BE070E087E891E00E94B8
:100F0000571D882309F443C08091020365E070E017
:100F100081FD3AC082E891E00E94571D8823B9F113
:100F20006DE070E080E791E00E94571D882379F121
:100F30000E94D91ADC01CB01805A9541AF4FBF4FB7
:100F40008093EA039093EB03A093EC03B093ED033B
:100F5000E4EDF4E080E092E0DF019C011D9221507D
:100F60003040E1F7F093DB06E093DA068FEF9FEF76
:100F70009093D3048093D20481E08093EF03809315
:100F8000EE031092030303C08DE791E0C5CF80917B
:100F9000F003811102C00E94C0340E94702E20E034
:100FA0004FEF6FEF84EB90E00E94DF2D81E091E046
:100FB0009093F5038093F40322242394312CBE01F3
:100FC0006F5F7F4F7B018091BB04853009F05AC071
:100FD000A0E4DA2ECC24C39400E112E18091BB049A
:100FE000853009F049C08091BB04843009F432C0D7
:100FF0000E949E2E8091E006811105C00E94CD12B4
:1010000080E00E94912EC092E0060E94821D109204
:10101000F80388E190E00FB6F894A89580936000FB
:101020000FBED092600083B7817F846083BF83B797
:10103000816083BF7894889583B78E7F83BF0FB616
:10104000F894A89580916000886180936000109268
:1010500060000FBE8091BA04882309F4BFCF0E94BC
:101060009626E7E0F3E0819181110AC4A1E1B3E0A3
:10107000AE17BF07C1F7B2CF0E9408230E94641BBE
:101080001092E0060E949626E0EDCE2EE2E0DE2EE3
:10109000F7E0AF2EF3E0BF2ED501F60191918D91CF
:1010A000892722E0EA3DF20719F08823B9F306C048
:1010B000811104C00E941E23B12C38C06090F0033F
:1010C00010E055245394D5017D905D01F601808098
:1010D000872411F100E099249394882D8921B1F09F
:1010E0006620A1F009A31AA30E94E51A9CA38BA372
:1010F0005DA291E0872D892109F490E09EA349A18A
:101100005AA16BA17CA18DA10E949A0C0F5F990C32
:10111000063019F7D6017C921F5FBFEFCB1ADB0AAE
:101120001A3089F60E942925BB24B3940E949E2E72
:10113000C12CA12C8091DF02C81608F082C00C2DB2
:1011400010E0F801E45FFE4F8081E82FE295EF7038
:10115000F0E0E0A1F0E08F7002C0F595E7958A9588
:10116000E2F7E170D801A55FBE4F2C91A22FA295A6
:10117000AF70B0E090968C9190E02F7002C0959582
:1011800087952A95E2F780FF02C082E001C080E0E7
:101190004E2F482BD801A052BD4FEC918E2F83705B
:1011A00090E0242F042E000C330B8217930709F4D0
:1011B00046C0EE0FEE0FE42BEC93D090DE02DC0C79
:1011C000EF70F0E0ED59FE4F04521D4F9081F80191
:1011D0008081890F8083843084F0ED2DF0E0E65229
:1011E000FD4F80818F5F80838091F003882339F0E9
:1011F00060E08D2D0E94101D02C020E001C021E0A2
:10120000D8018C918D3F84F4ED2DF0E0E652FD4F36
:101210008081815080838091F003882321F061E0F8
:101220008D2D0E94101D21E0F8018081082E000CF8
:10123000990B64E070E00E94D5368083A22AC394A3
:1012400079CFAA2021F00E945B1FBB24B394809128
:10125000EF03882309F429C18091040390910503C9
:101260000E94CA1AC29738F48091D2049091D30494
:10127000892BD1F41DC00E94E51A90930503809339
:10128000040384ED94E09093DB068093DA06E2E9B0
:10129000F1E084918F01882339F30E944B280F5F7E
:1012A0001F4FF8018491F7CF8091EF03811106C0A1
:1012B0008091EE03882309F4F8C0E0C08091030315
:1012C0008111F6CF0E949C1D2091D2043091D3044D
:1012D0002115310569F380E0482E512C6101082E5B
:1012E00002C0CC0CDD1C0A94E2F7A6014223532372
:1012F000452B11F48F5FF0CF90910203920175E0BE
:10130000220F331F7A95E1F790FF13C065E0369501
:1013100027956A95E1F7220F220F220F20930F01E4
:1013200010921201295F2093100183E08093130132
:1013300011C0220F232F221F330B31958295880F66
:10134000807680930F0120931201815E80931001BB
:101350002093130124E630E047E050E06DE071E0B7
:1013600088E70E941B34892B09F0A2CF80910203E9
:1013700080FF63C080E2E2EEF2E0DF011D928A9519
:10138000E9F745E0440C551C4A95E1F7E7E7F1E041
:10139000F8A7EFA363E771E0AFA1B8A58D91B8A757
:1013A000AFA3FB019191BF01A201490F511D4C5206
:1013B0005B4F90E08E519D4FFC0137E0932E9F01D3
:1013C000281B390B722C01C0770C2A95EAF78A0189
:1013D000812CD801AD908D01A720292D28192770C7
:1013E000622E022E000C330BBA2D01C0BB0F6A9483
:1013F000EAF76B2E3195219531092770332701C00B
:10140000A6942A95EAF76A28A0806A2860828394C5
:1014100028E08212DECF9A9431963FEF9312CFCF1D
:101420008FA198A58B57914009F0B6CF04E610E044
:1014300020E230E042EE52E00DC0C20125E0880F0C
:10144000991F2A95E1F7AC014C525B4F04E610E07E
:1014500020E230E060E488E70E943C34892B09F008
:1014600027CFC094D0948091D2049091D304C82205
:10147000D922D092D304C092D2041ACF0E94D91A92
:101480000091EA031091EB032091EC033091ED03FE
:10149000DC01CB01801B910BA20BB30B8F3F9F4F45
:1014A000AF4FBF4710F40E94821DB1100E949C1DD7
:1014B0000E94641B90910603891721F08093060314
:1014C0000E94D91A8091BB04843009F07CCD83E05E
:1014D0008093E9008091E80082FF75CD8091E8005B
:1014E00085FF22C00E94071881111CC000E210E095
:1014F0009E012F5F3F4F690108C08091F100D60126
:101500008D936D010150110969F08091E80085FD0E
:10151000F4CF8091E8008B778093E8000E94071851
:10152000882399F391E001C090E08091E8008B77E7
:101530008093E800992309F446CD2981822F90E019
:10154000FC013197E531F10508F091C1EA5AFF4FEE
:101550000C94E9361A828CE0E1C08A81823009F469
:10156000A5C150F4813009F082C10E94D91A9B8331
:101570008C837D836E837DC1833041F0843009F09C
:1015800076C11B821C821D821E8273C14B81DE01CB
:10159000149680E090E0242F30E0B901680F791FA5
:1015A0006A30710508F065C1E42FE80FF0E0E95FEB
:1015B000FC4F50815D9301968C31910571F759C1B3
:1015C0008A81823061F0853009F051C19091C9045F
:1015D00081E089278093C904109252014AC16B812E
:1015E0007C818D819E810E94EF360E94751B41C1D6
:1015F0004C816B818A810E94CB1C28C12D813E8148
:101600003227232732274C816B818A810E942D1C2F
:1016100030C10E94541C2DC18A81833009F027C13A
:10162000283009F43EC0293009F468C08B8182302B
:10163000D1F070F4813009F01CC14C8124E6429F46
:10164000412D11248091CA0420E06091CB0425C073
:101650008330F9F0843009F00CC18C8120E0409196
:10166000CC046D811AC08C8181110CC08091C90499
:10167000837011F0109252018091C9048C7F809385
:10168000C904F7C00E94702E60E08C810E94402E39
:10169000F0C08C818093CD04ECC090E00E94DF2DDF
:1016A000E8C08B818230E1F078F4813009F0E1C04C
:1016B0008091CC04BFEF8B9FC001112464E670E0E1
:1016C0000E9423366C83D5C08330A1F0843009F0AA
:1016D000D0C08091CA048C838091CB048D83C9C013
:1016E0008091C904982F937019F08695869504C04F
:1016F00080E002C08091CD048C83BBC048E050E004
:1017000068E170E089EC94E00E9495361092E10661
:10171000B0C080E14EC081E08A8387ED8B83A9C091
:101720000A811B81102701271027AC80B12C67018B
:10173000C801875D9D4F96012E193F092A153B056B
:1017400008F097C0073DE1E01E0730F40E9487369D
:10175000D60114968C9302C0F60114820F5F1F4FBE
:10176000FFEFCF1ADF0AE4CF0A811B811027012780
:101770001027AC80B12C6701C801875D9D4F960191
:101780002E193F092A153B0508F073C0073D21E0DB
:10179000120728F4D60114966C910E94A5360F5FAB
:1017A0001F4FBFEFCB1ADB0AE7CF0E94B21B61C00D
:1017B00084E08A835EC00A811B81102701271027DD
:1017C000AC80B12C6701C801899696012E193F099A
:1017D0002A153B0508F04DC0003EE1E01E0730F43D
:1017E0000E948736D60114968C9302C0F6011482AB
:1017F0000F5F1F4FFFEFCF1ADF0AE5CF0A811B8172
:10180000102701271027AC80B12C6701C8018996E9
:1018100096012E193F092A153B0558F5003E21E097
:10182000120728F4D60114966C910E94A5360F5F1A
:101830001F4FBFEFCB1ADB0AE9CF41E08C8181114A
:1018400001C040E06B818A810E94F41B9D8335C0FA
:101850002D813E8132272327322741E08C8181115F
:1018600001C040E06B818A810E94C21B02C08FEFE1
:10187000898340E250E0B70182E00E941E1AA3CBA8
:1018800009BD19BD09B400FEFDCF8091D8008F7D40
:101890008093D8008091E00082608093E000809186
:1018A000E00081FDFCCF0E94082398CB88E290E005
:1018B0000E9487361B821C821D828E83DACFA6E0AF
:1018C000B0E0E5E6FCE00C94463649835A83498152
:1018D0005A81992361F0222351F0CA010E9480208D
:1018E000182F682F89819A810E947F2204C0CA0123
:1018F0000E946622182F69817A81812F0E947626A4
:101900002696E3E00C9462360E9408232FEF84E3CE
:101910009CE0215080409040E1F700C000009AE038
:1019200088E10FB6F894A895809360000FBE90935D
:101930006000FFCFABE1B0E0E0EAFCE00C9445369C
:101940004E8B5F8B688F798F8A8F9B8F192F9111A8
:1019500010926404DE011F9687E0FD0111928A95C2
:10196000E9F786E0FE01769601900D928A95E1F7FF
:101970000A8D002341F021E04F85588969897A89D1
:10198000C8010E945F0C0B8B1C8B87E0FE013F9609
:10199000DE01189601900D928A95E1F7CE01089626
:1019A0000E94DF2081112CC087E0FE013896DE0105
:1019B000119601900D928A95E1F76C85662301F1ED
:1019C0002091280430E0C901019687709927409141
:1019D000610450E08417950761F16D8397E0929F51
:1019E000D001939FB00D1124A75DBB4FFE0131962E
:1019F00001900D929A95E1F7809328040E941D2092
:101A000017E080916104909128048917F9F0189FDC
:101A1000C0011124875D9B4F0E94DF208823B1F015
:101A20008091610490E0019687709927809361040A
:101A3000E8CF0E9408231092280410926104E1E28A
:101A4000F4E087E0DF011D928A95E9F76B96E4E008
:101A50000C946136A8E0B0E0E0E3FDE00C9437368A
:101A6000FC018481882309F47BC58F0121E040813A
:101A700051816281738195810E945F0C7C01F80124
:101A80008581882309F426C2C701975780389105BC
:101A900008F040C1FFE0FE1508F40AC58FEF93E09F
:101AA0000E948736811104C569E2A62E62E0B62E37
:101AB000EE2079F0A11424E0B20609F4F9C4C501BE
:101AC0000E948736811101C0EA943FEFA31AB30A3E
:101AD000EFCFCE0101962C0188E0F20111928A9598
:101AE000E9F75AE0352E7501FFEFEF1AFF0AC5013D
:101AF0000E94873689831A82882309F4D9C48130E9
:101B000009F044C0650122E0C20ED11CC7010E9449
:101B100087368A83882309F4CBC49FEF980F9330CC
:101B200060F433E0A30EB11CC6010E9487368B839C
:101B3000882309F4BDC41C822CC0843049F54E01B1
:101B400083E0880E911C42E0E42EF12C56019FEFB9
:101B5000A91AB90AC6010E948736F40181934F0180
:101B6000882309F4A5C48C3741F4E2E0F0E0EC0FDF
:101B7000FD1FEE0DFF1D10820CC0FFEFEF1AFF0AD4
:101B8000650127E0E216F10409F792C4570101C08C
:101B900056017201F7012081222309F4A4CF2130DC
:101BA00009F056C08181813081F46701F2E0CF0EE7
:101BB000D11CF7018281893319F460E570E002C01D
:101BC00060E070E00E945B330AC0823051F467012C
:101BD000F2E0CF0ED11CF70182810E94EC32760137
:101BE00095C0833049F46701F2E0CF0ED11CF701B4
:101BF00082810E94B932F3CF843021F0FFEFEF1AD7
:101C0000FF0A84C0F7012281C70102967C0180E0AF
:101C100090E030E0205331092A30310570F4389ECD
:101C2000A001399E500D1124C901840F951FEFEFBB
:101C3000EE1AFE0AF7012081ECCF009709F466C086
:101C4000EFE9FFE03197F1F700C000000197F5CF11
:101C5000E22FF0E0EE5FFD4F2490822F869586956F
:101C6000869590E0FC01EE50FE4F64902770712C39
:101C7000022E02C0759467940A94E2F7F1E06F2295
:101C80007724FC01EE51FE4F8490912C022E02C06D
:101C9000959487940A94E2F731E083229924FC0119
:101CA000EE52FE4FC490D12C02C0D594C7942A9511
:101CB000E2F781E0C822DD246114710419F081EE9D
:101CC0000E94EC328114910409F40AC486EE0E9449
:101CD000EC3299E3291609F4FDC360E070E0822D2F
:101CE0000E945B338114910419F086EE0E94B93290
:101CF0006114710419F081EE0E94B932C114D1044B
:101D000029F060E070E08CE20E945B33EFEFEE1AA6
:101D1000FE0A40CFC7019057839708F0EAC384E0DA
:101D200090E00E948F369093CE028093CD02F7010F
:101D3000E150F047E232F10520F4E559FF4F0C94F1
:101D4000E9368091CD028160ACC08091CE0288607E
:101D5000B4C08091CD028260A4C08091CD0220C029
:101D60008091CD0288609DC08091CE021EC080917E
:101D7000CE028260A2C08091CD02806192C080912B
:101D8000CD0280628EC08091CD0280648AC00E94A4
:101D900008238091CD02806884C08091CD02886044
:101DA00084607FC08091CE028260816086C0809115
:101DB000CD028E7F76C08091CE02877F7EC08091DB
:101DC000CD028D7F6EC08091CD0220C08091CD026A
:101DD000877F67C08091CE021EC08091CE028D7F2A
:101DE0006CC08091CD028F7E5CC08091CD028F7DD2
:101DF00058C08091CD028F7B54C00E9408238091EF
:101E0000CD028F774EC08091CD02877F8B7F49C0F6
:101E10008091CE028D7F8E7F50C08091CD0282FB5B
:101E2000222720F991E0922790FB82F990FB83F919
:101E300038C08091CE02982F909591708E7F892B1B
:101E400090FB81F93AC08091CD0286FB222720F9D0
:101E500091E0922790FB86F924C00E94082380918C
:101E6000CD0287FB222720F991E0922790FB87F98A
:101E700018C061E001C060E08EE090E00E94A536ED
:101E80001EC08091CD0284FB222720F991E0922789
:101E900090FB84F906C08091CD02982F909590FB1D
:101EA00080F98093CD020BC08091CE0283FB222764
:101EB00020F991E0922790FB83F98093CE02609104
:101EC000CD027091CE0284E090E00E94C3360E9461
:101ED0000823EEC280916D048272F701E052F84748
:101EE000E531F10508F054C0E357FF4F0C94E93693
:101EF0009091C90481E089278093C904109252010E
:101F00008091E10681608093E106D2C249E55EE2FC
:101F100064E67EE204C044E65EE269E57EE20E9499
:101F2000C21DC6C24AE25EE265E37EE2F8CF45E347
:101F30005EE26AE27EE2F3CF4EE05EE26CE17EE2D8
:101F4000EECF4CE15EE26EE07EE2E9CF42EF5DE291
:101F500060E07EE2E4CF40E05EE262EF7DE2DFCF70
:101F600048E35DE266E47DE2DACF46E45DE268E301
:101F70007DE2D5CF61E081E008C061E085E005C089
:101F800061E08DE002C061E082E10E94402E90C2DB
:101F9000F7E7EF16FCE7FF0611F481E006C028E73B
:101FA000E2162CE7F206E1F482E00E94BE2243E052
:101FB00062E081E00E949C227BC2F3E0EF16FCE726
:101FC000FF0609F4B9C208F0A5C2E1143CE7F30624
:101FD00009F461C281E0E8168CE7F80609F4B2C2A0
:101FE000F8018581E080F180882349F0C7010E94D3
:101FF0008020D82E682FC7010E947F2204C0C7010D
:102000000E946622D82EB7018D2D0E9476260E944E
:102010003E1E7C01A82EF801B580968092943FE088
:10202000932280916204877001F1BB20F1F08F2D23
:10203000807F803469F080E28E0D8830B0F08F2D83
:10204000807E803229F4F1E0FE1578F4992069F061
:102050008091CE0282FF09C082E00E94CB22809153
:1020600062048770DD24D3948111D12CCF2CC294CB
:102070002FE0C2228C2D90E08C30910508F0E3C156
:10208000FC01EE55FF4F0C94E9368F2D807F9F2D7C
:102090009F70F92E882319F0F29490EFF922BB205B
:1020A000B9F0FF2009F4BDC180E28E0D883010F038
:1020B000A11006C090916D04F92AF0926D0405C03C
:1020C00090916404F92AF09264040E94E31FA9C16C
:1020D0008E2D0E94B932FF2009F4B5C180E28E0D29
:1020E0008830A0F1AA2091F1F09490916404F92233
:1020F000F09264042EC09F2D907F8F2D8F70F82E4C
:10210000903219F0F29480EFF8228E2DAA2029F057
:1021100021E0A21609F44DC058C08091CE0282FD84
:102120001BC0BB2069F0FF2039F080916D048F291E
:1021300080936D040E94E31F80E00E94EC3283C113
:1021400080E00E94B932FF2009F47DC18F2D0E94EA
:10215000DC1F0E94E31F77C1BB2081F09920C9F1E9
:1021600031E0931270C1809163049F2D9823F9167A
:1021700009F469C18F298093630465C1911063C11B
:102180008F2D0E94A832809163049F2D982329F0FF
:102190009F2D9095892380936304209111038F2DA7
:1021A000822309F450C18F2D809528232093110399
:1021B0004AC1BB2029F085E0891508F444C109C053
:1021C00094E0991508F43FC115C0BB2031F091107F
:1021D00028C18F2D0E94AF3236C1992059F0893322
:1021E00009F02EC1EFEFF7EE23E0E150F040204080
:1021F000E1F724C18F2D0E94A83225C18F2D86952D
:102200008695837019F0813059F01DC1BB2019F0FB
:10221000C701937002C080E090E00E943F1B19C18B
:10222000BB2019F0C701937002C080E090E00E94CB
:102230001A1B0FC18F2D8370B1F5B11008C14E2D3F
:10224000429546954770440F440F8E2D8F7090E055
:102250009C01042E01C0220F0A94EAF7E4FE08C094
:102260008FE090E001C0880F4A95EAF7809501C0A1
:1022700080E04F2D469546954370423069F088F4D2
:1022800090916E04413019F0822B892302C0922B69
:10229000892B0E940523DBC0822B90916E04892735
:1022A000F8CF822BF6CFBB2019F08F2D817001C0A3
:1022B0008695882309F4CBC04E2D429546954770EC
:1022C000440F440F8E2D8F7090E09C01042E01C0AE
:1022D000220F0A94EAF7E4FE08C08FE090E001C004
:1022E000880F4A95EAF7809501C080E04F2D46950A
:1022F00046954370423059F078F49091CC024130C9
:1023000019F0822B892309C0922B892B06C0822BBE
:102310009091CC02892701C0822B0E94992297C0FC
:102320003F2D3F70F32EBB2039F0832F0E94F922FE
:102330008E2D0E94AF328BC08E2D0E94A8328F2D21
:102340000E94BE2284C08E2D92EFA91681F19A15AB
:1023500038F0E0EFAE1659F0F1EFAF1619F15DC0AD
:1023600023EFA21659F134EFA316C1F056C0BB20DB
:1023700081F084E0891508F466C02F2D2F7181E06B
:1023800090E001C0880F2A95EAF79091CC02892746
:1023900020C095E0991508F456C0EFCF8091CE0289
:1023A00082FD1AC0BB2029F08F2D8F7129C0BB2060
:1023B000D9F38F2D8F710E94BE2245C0BB2041F002
:1023C0009F2D9F7181E001C0880F9A95EAF701C0A7
:1023D00080E00E94992237C0BB20A9F0EF2DEF7159
:1023E000FE2E8E2F0E94F9228091CE0282FF07C01E
:1023F000F8E0FF9EC00111248360809362048F2D5A
:102400000E94F92220C081E00E94CB2221E0291500
:10241000D0F482E00E94CB2216C0BB2021F099208C
:1024200019F28E2D8ACE992021F2893349F43FEF9B
:1024300087EE93E0315080409040E1F700C000000B
:102440008E2D0E94B93288EF8C0D843010F40E94DA
:10245000641BDD20A9F08091620480FD11C0F801A9
:1024600015828695869586950E94F922C8010E945C
:102470002A0D809162048695869586950E94BE22DB
:1024800020E0F801408151816281738184819581CE
:102490000E945F0C65C00E9408232FEF34E38CE09C
:1024A000215030408040E1F700C000000E94771AC0
:1024B00080916204877009F453C0F80185818823F4
:1024C00009F44EC08091CE0282FF4AC082E00E9491
:1024D000CB2246C060E570E089E30E945B3305CC07
:1024E000F9E32F12FACB60E570E089E30E945B33D9
:1024F000FFCB27E7E2162CE7F20611F481E007C0D4
:1025000038E7E3163CE7F30609F057CD82E00E9476
:10251000F9224DCD9BE5E9169CE7F906E9F0ECE5DB
:10252000EE16ECE7FE0681F0FAE5EF16FCE7FF0693
:1025300009F056CD81E011C06FEF7FEF80E090E0B1
:102540000E94C3360E94840C8091CE0282FB8827B1
:1025500080F991E0892701C080E00E94E22240CD0D
:102560002896E2E10C945336FF920F931F93CF937A
:10257000DF93182F062FF42EC0E0D0E02F2D402F30
:10258000612FCE010E9421312196CA33D105B1F7C6
:10259000CDB7DEB7E5E00C946036A0E0B0E0E3ED47
:1025A000F2E10C943736782E8091510187110DC0DD
:1025B0002091C904237030E04091500150E081E047
:1025C0002417350719F480E001C081E08170809301
:1025D0004F018091CE0490914E01981739F080936D
:1025E0004E0140E060E080E00E94B412FFE07F1204
:1025F00023C081ED9FE202C08CE290E30E94F728A5
:1026000007C0F71508F49BC184E091E30E94EE290E
:1026100090914D019F5F90934D0181118BC482E099
:102620008093520180914F01811184C4711082C442
:1026300083E0809352017EC4F71508F45AC027E066
:10264000721203C080E090E3D9CF271508F471C15E
:1026500033E0731234C080914D010E947D2EEC0155
:102660000091CB04D090CC042091CD0410E4129FB3
:10267000112D1124CD17D8F5EC2EF12CF701EB58C4
:10268000FD4F908180914E018923B9F0F701EE0F43
:10269000FF1FEB53FE4F85AD82958F706091CA048A
:1026A000819F600D1124702F8D2D0E941E32462FA8
:1026B000282F672FC7010E942131CF5FDBCF37154D
:1026C00008F4BBC081E0781256C080914D010E9491
:1026D0007D2EEC016091CA047091CB048091CC04F2
:1026E0000E941E32162F072FF82ECD1790F18D2F36
:1026F0002DC037E173124DC180914D010E947D2E96
:10270000192F90914F01911135C16091CD0420E1B5
:10271000620F08F46FEF8091C5049091C6040E9487
:10272000F3316AE070E00E942336892B71F40E9435
:1027300084319AE3899F9001112460914E01832F87
:10274000932F990F990B0E94A42D812F0E94103274
:102750005FCFEC2FF0E0DF01AB58BD4F8C91909133
:102760004E01982331F02F2D412F602FCF010E9471
:102770002131CF5FBACF871558F080914F01882360
:1027800009F459C040E060E080E00E94B41253C0F8
:1027900080914D010E947D2EEC010091CB0410919F
:1027A000CC04F090CA046F2D702F812F0E941E322E
:1027B000E62ED72EC82E6091CD046F0D702F812F7D
:1027C0000E941E32162F072FF82ECD1708F08FCF3C
:1027D0008C2F90E0FC01EB58FD4F308120914E0191
:1027E000232359F030FF04C02F2D412F602F03C049
:1027F0002C2D4E2D6D2D0E942131CF5FE6CFF71588
:1028000008F0F5C03DE1731233C24091C40350910A
:10281000C5036091C6037091C7038091C504909170
:10282000C604A091C704B091C80484179507A607F1
:10283000B70708F05DC180E0EBCE95E079123DC0AE
:1028400080914D010E947D2EEC010091CA041091EF
:10285000CB04F090CC046091CD04669566956695A6
:102860008091C5049091C6040E94F3310E943F31CB
:10287000805887FD8195880F282F3F2D239F212D7C
:102880001124822FB8010E941E32162F072FF82E16
:10289000CD1708F02CCFEC2FF0E0DF01AB58BD4F87
:1028A0008C9190914E01982331F02F2D412F602F64
:1028B000CF010E942131CF5FEBCF971508F49CCE5A
:1028C00080914D010E947D2EEC010091CB04D090AF
:1028D000CC042091CD0410E4129F112D1124CD17AA
:1028E00008F005CFEC2EF12CF701EB58FD4F90814D
:1028F00080914E018923D9F0F701EE0FFF1FEF5FA2
:10290000FD4F6081169FB0011124B5E07595679564
:10291000BA95E1F78091CA04680F702F8D2D0E943F
:102920001E32462F282F672FC7010E942131CF5F0B
:10293000D6CFEBE07E1208C08FEA90E302C08BECAA
:1029400090E30E94892964CEE71530F0F9E07F1208
:1029500058CE86EE90E35ACE2DE0721203C085EF7A
:102960009FE24CCE271518F08EEF9FE247CE8CEEFB
:102970009FE244CEC82FD0E0E12EF12CCE15DF052A
:102980000CF0E3CE60914E01CE010E94A42D219661
:10299000F5CF371530F183E1781203C08AE890E370
:1029A000D0CF871570F091E1791203C08AEC91E3E2
:1029B0002DCE971518F082EC9FE2C3CF8EE990E3FD
:1029C00025CEE5E17E1203C082E69FE204C0E71552
:1029D00028F084E99FE20E943A291ACE84E29FE21D
:1029E000FACFFBE17F120BCF83E19FE207CE29E113
:1029F00072123EC080914D010E947D2EEC0100912B
:102A0000CB041091CC04F090CA046091CD0466957B
:102A1000669566958091C5049091C6040E94F33135
:102A20000E943F31805887FD8195880F682F2CE0E8
:102A3000629F612D11246F0D702F812F0E941E3215
:102A4000162F072FF82ECD1708F051CEEC2FF0E0FF
:102A5000DF01AB58BD4F8C9190914E01982331F01E
:102A60002F2D412F602FCF010E942131CF5FEBCF5F
:102A7000271508F43AC080914D010E947D2E192F30
:102A800090914F01911122C06091CD0420E1620F1D
:102A900008F46FEF8091C5049091C6040E94F33151
:102AA00065E070E00E942336892B09F04ECE0E942B
:102AB0008431EAE38E9F9001112460914E01832FAF
:102AC000932F990F990B0E94802D3FCEC82FD0E0F5
:102AD000E12EF12CCE15DF050CF037CE60914E01C2
:102AE000CE010E94802D2196F5CF80E691E386CD20
:102AF00080914F01811107C080914D010E947D2E70
:102B0000192FC82F4EC040E060E080E00E94B41250
:102B100006E113E0C0E0D0E00E94843181FF05C0EF
:102B2000F8011082118212821EC00E948431D82EB8
:102B30000E948431F0E88F9FC00111247FE7790F54
:102B40007E01EE0CFF1CC7018C0F9D1F9C012A5EAD
:102B50003C4F79016D2D8091CC040E941E32F7010B
:102B600060837183828321960D5F1F4FCA33D10525
:102B700099F6C2CF8C2F90E0FC01EB58FD4F3081CD
:102B800020914E01232361F0FC01EE0FFF1FE80F9F
:102B9000F91FEA5EFC4F2281408161810E94213150
:102BA000CF5FC11738F3812F0E9410328111CDCD34
:102BB00020E0C12FD0E02197822F90E08C179D0755
:102BC000C4F4DC01AA0FBB1FA80FB91FAA5EBC4F3B
:102BD0000196FC01EE0FFF1F8E0F9F1FFC01EA5EA6
:102BE000FC4FC080D180E280CD92DD92EC922F5FCD
:102BF000E3CF0E9484317E01EE0CFF1C81FF08C0F0
:102C0000CE0DDF1DCA5EDC4F188219821A8217C0F2
:102C10000E948431082F0E948431F0E88F9FC00108
:102C200011247FE7790FCE0DDF1DCA5EDC4F602FC8
:102C30008091CC040E941E32688379838A830E942B
:102C4000FD31C090C504D090C604E090C704F09058
:102C5000C804DC01CB018C0D9D1DAE1DBF1D8093F2
:102C6000C4039093C503A093C603B093C7036DCD6F
:102C7000731608F071C080914D010E947D2E192FAE
:102C80004091C5045091C6046091C7047091C80476
:102C90008091120390911303A0911403B091150336
:102CA00084179507A607B70708F04FCD0E94843117
:102CB000FAE38F9FC0011124C92FDD27C7FDDA95E4
:102CC000FE01EB58FD4F908180914E01892309F45C
:102CD0003CCD0E94843181FD0EC00E948431082FBA
:102CE0000E94843120E8829FC00111247FE7790F80
:102CF0008091CC0403C080E070E000E0602F0E946F
:102D00001E32462F282F672FCE010E94213120919D
:102D1000CD0430E1230F08F42FEF60E1822F90E023
:102D20000E94F331BC0184EF91E00E942336809130
:102D3000C5049091C604A091C704B091C804860F41
:102D4000971FA11DB11D8093120390931303A093AD
:102D50001403B0931503F9CC8EE17812B1C08091C1
:102D60004F01882329F040E060E080E00E94B41227
:102D700080914D010E947D2E692E4091C504509195
:102D8000C6046091C7047091C8048091E6039091D5
:102D9000E703A091E803B091E90384179507A6071C
:102DA000B70708F08BC06091CA047091CB04809182
:102DB000CC040E941E32562E472E382E08EC13E00B
:102DC000C5ECD1E031E0832E32E0932E5E016E013E
:102DD0007801212CF7018081F601882369F0808138
:102DE000232D452D642D90E00E942131F501858130
:102DF000232D452D642D0CC0808120E040E060E053
:102E000090E00E942131F501858120E040E060E002
:102E100090E00E942131F701818181937F01239409
:102E2000FFEFCF1ADF0A21E0A21AB10832E0231225
:102E3000D1CFF8018281882361F08A81232D452D2D
:102E4000642D90E00E9421318B81232D452D642D2E
:102E50000BC08A8120E040E060E090E00E942131D8
:102E60008B8120E040E060E090E00E9421310E94F0
:102E70008431837091E009F090E0F80192830D5F56
:102E80001F4F26968C169D0609F0A0CF0E94FD319B
:102E90000091C5041091C6042091C7043091C80464
:102EA000DC01CB01800F911FA21FB31F8093E603AB
:102EB0009093E703A093E803B093E903862D46CCF3
:102EC0009FEF791231C08091C5049091C604A09102
:102ED000C704B091C80488279C70AA27BB272AE0A2
:102EE000B695A795979587952A95D1F78230910544
:102EF000A105B10571F083309105A105B10569F017
:102F000040E00197A105B10511F060E008C064E15F
:102F100002C044E160E080E003C044E164E184E198
:102F20000E94B41282E085CB80914D018F5F809327
:102F30004D0175CBCDB7DEB7E2E10C945336089561
:102F400008958091B00408951F920F920FB60F92CA
:102F500011242F933F934F935F936F937F938F939E
:102F60009F93AF93BF93CF93DF93EF93FF93C09162
:102F7000E900CF708091EC00D82FD17080FDD0E8AF
:102F80001092E9008091F000877F8093F0007894A0
:102F90000E943E2A1092E9008091F00088608093A0
:102FA000F000CD2BCF70C093E900FF91EF91DF913E
:102FB000CF91BF91AF919F918F917F916F915F91D1
:102FC0004F913F912F910F900FBE0F901F9018952A
:102FD000E8EDF0E080818E7F80831092E200109215
:102FE000DA001092E100A0EEB0E08C9181608C9349
:102FF00080818F77808319BCA7EDB0E08C918E7FA4
:103000008C9380818F7E80831092FD0308952091A0
:10301000E4003091E50095E64091EC00842F81704A
:1030200040FF23C08091E80080FD1DC08091BB045B
:10303000882399F0853099F08091EB0085FD11C0CF
:103040004091E4005091E5002417350729F3915091
:1030500011F09A01E1CF84E0089582E0089583E0C1
:10306000089581E0089580E008954091E80042FFCE
:10307000DDCF08958091BD0487FF11C08091E800E5
:1030800082FD05C08091BB048111F8CF11C08091F1
:10309000E8008B770BC08091BB04882349F08091B6
:1030A000E80080FFF8CF8091E8008E778093E800F9
:1030B0000895982F973068F59093E900981739F0A4
:1030C0007091EC002091ED005091F00003C0242F8E
:1030D000762F50E021FD02C09F5FECCF3091EB00D6
:1030E0003E7F3093EB003091ED003D7F3093ED005B
:1030F0003091EB0031603093EB007093EC00209343
:10310000ED005093F0002091EE0027FDE5CF80E028
:1031100008958F708093E90081E00895A0E0B0E009
:10312000E4E9F8E10C944136C8EDD0E088818F7E67
:103130008883E7EDF0E080818160808384E082BF56
:1031400081E08093FD0388818E7F888302EE10E00A
:10315000F80110821092DA0081EEC82ED12CF6010F
:10316000108288818F7788838881806888838881AE
:103170008F7D888319BC1092BB041092BC041092FE
:10318000BA041092B90490EEE92EF12CF701808177
:103190008B7F808388818160888342E060E080E06B
:1031A0000E945918F60180818E7F8083F80180810A
:1031B00081608083808188608083F70180818E7F39
:1031C0008083888180618883CDB7DEB7E8E00C9486
:1031D0005D361F920F920FB60F9211242F933F93DB
:1031E0004F935F936F937F938F939F93AF93BF930F
:1031F000EF93FF938091E10082FF09C08091E2008C
:1032000082FF05C08091E1008B7F8093E100809177
:10321000DA0080FF2AC08091D80080FF26C080910C
:10322000DA008E7F8093DA008091D90080FF18C089
:1032300080E189BD82E189BD09B400FEFDCF81E056
:103240008093BB048091FD0381110FC00E94E81799
:103250000E948E188091E20084608093E20005C095
:1032600019BC1092BB041092FD038091E10080FF15
:1032700017C08091E20080FF13C08091E2008E7F32
:103280008093E2008091E20080618093E20080916F
:10329000D80080628093D80019BC85E08093BB047D
:1032A0008091E10084FF30C08091E20084FF2CC057
:1032B00080E189BD82E189BD09B400FEFDCF809126
:1032C000D8008F7D8093D8008091E1008F7E80931D
:1032D000E1008091E2008F7E8093E2008091E20025
:1032E00081608093E2008091BC04882311F084E027
:1032F00007C08091E30087FD02C081E001C083E048
:103300008093BB048091BB048091E10083FF27C0C0
:103310008091E20083FF23C08091E100877F80934A
:10332000E10082E08093BB041092BC048091E10034
:103330008E7F8093E1008091E2008E7F8093E20097
:103340008091E20080618093E20042E060E080E0F2
:103350000E9459188091F00088608093F000FF91DE
:10336000EF91BF91AF919F918F917F916F915F91FD
:103370004F913F912F910F900FBE0F901F90189576
:103380002091C3043091C4042617370748F0611513
:10339000710539F42091E8002E772093E80001C0F0
:1033A000B901FC0120E06115710579F18091BB0440
:1033B0008823F1F18530F1F18091E80083FD3CC074
:1033C0008091E80082FD2EC08091E80080FFEBCF65
:1033D0002091F3008091F20090E0922B611571052D
:1033E00051F08830910538F421912093F10061501B
:1033F00071090196F3CF21E0089709F020E0809150
:10340000E8008E778093E800CECF2111CFCF0AC09D
:103410008091BB04882361F0853061F08091E800E1
:1034200083FD0AC08091E80082FFF2CF80E008951A
:1034300082E0089583E0089581E008950F931F933B
:10344000CF93DF938B01EA019091BB04943079F51F
:103450008F708093E9008FEF9091E800815095FD87
:1034600006C095ED9A95F1F700008111F5CF809196
:10347000E80085FF1CC00E940718882361F0809136
:10348000E8008E778093E80012C0F80181918F01E7
:103490008093F1002197209791F38091E80085FDBA
:1034A000F4CF8091E8008E778093E800E4CFDF913D
:1034B000CF911F910F91089543E050E0BC0184E04B
:1034C0000E941E1A0895CF93DF93EC0148E050E06C
:1034D000BC0181E00E941E1A88E0FE01A1EBB4E06D
:1034E00001900D928A95E1F7DF91CF91089587E7DA
:1034F00097E790930108809300089AE088E10FB65F
:10350000F894A895809360000FBE90936000FFCF61
:1035100078941F920F920FB60F9211248F939F935E
:10352000AF93BF938091F9039091FA03A091FB03AD
:10353000B091FC030196A11DB11D8093F9039093F6
:10354000FA03A093FB03B093FC03BF91AF919F914B
:103550008F910F900FBE0F901F901895CF92DF9212
:10356000EF92FF922FB7F894C090F903D090FA032E
:10357000E090FB03F090FC032FBFA7019601261BF0
:10358000370B480B590BCA01B901FF90EF90DF9040
:10359000CF9008959C014FB7F8948091F9039091D2
:1035A000FA03A091FB03B091FC034FBF821B930B66
:1035B00008952FB7F8946091F9037091FA03809100
:1035C000FB039091FC032FBF08952FB7F8948091CF
:1035D000F9039091FA03A091FB03B091FC032FBF74
:1035E00008951F920F920FB60F9211248F939F93FD
:1035F000AF93BF938091F803811113C08091F903B9
:103600009091FA03A091FB03B091FC034196A11D98
:10361000B11D8093F9039093FA03A093FB03B09339
:10362000FC03BF91AF919F918F910F900FBE0F90B0
:103630001F901895A3E0B0E0E0E2FBE10C94473660
:103640002091F6033091F70328173907A1F09093E2
:10365000F7038093F603E091F403F091F5033097BC
:1036600051F024E029839B838A830084F185E02D37
:10367000CE01019609952396E2E00C946336A3E00F
:10368000B0E0E5E4FBE10C9447362091F203309181
:10369000F30328173907A1F09093F3038093F20303
:1036A000E091F403F091F503309751F023E0298382
:1036B0009B838A830084F185E02DCE0101960995D4
:1036C0002396E2E00C9463368091F003882359F04E
:1036D000E091F403F091F503309729F00190F08127
:1036E000E02D0995089580E0089588E290E00E9419
:1036F000A5360895CF93C82F811102C06FEF01C086
:1037000063E285E290E00E94A536C11102C06FEF2E
:1037100001C062E186E290E00E94A536C11102C0BC
:103720006FEF01C064E187E290E00E94A536CF917F
:10373000089585E290E00E948736833281F486E224
:1037400090E00E948736823151F487E290E00E9437
:10375000873691E0843109F090E0892F01C080E044
:1037600081700895CF93DF93C9E2D2E060E0CE018B
:103770000E94A5362196C11584E0D807B9F7DF91DC
:10378000CF9108950F931F93CF93DF93843038F533
:10379000623028F594E0699FE001112498E0899F48
:1037A000C00DD11D1124C75FDD4F411103C082E060
:1037B00090E002C080E090E0632F022F142F8C0F66
:1037C0009D1F0E94A536111103C083E090E002C046
:1037D00081E090E0602F8C0F9D1F0E94A536DF9145
:1037E000CF911F910F910895FF920F931F93CF9345
:1037F000DF93843058F5623048F524E0629F800101
:10380000112438E0839F000D111D1124075F1D4F07
:10381000411103C082E090E002C080E090E0F42E0D
:10382000800F911F0E94873690E0D82FCC27F1108F
:1038300003C083E090E002C081E090E0800F911F20
:103840000E9487369E01282BC90102C080E090E0CB
:10385000CDB7DEB7E5E00C9460361F93CF93DF93CE
:10386000962F8430E8F46A30D8F44630C8F4632FD9
:10387000122FC42FD0E0CC0FDD1F2CE0929FC00D83
:10388000D11D112498E7899FC00DD11D1124CE01AF
:1038900089960E94A536612FCE018A960E94A53690
:1038A000DF91CF911F910895A0E0B0E0EAE5FCE13F
:1038B0000C943D369EEEA92E93E0B92EC12CD12C4E
:1038C000C0E0E12CF12CD0E000E010E046018E0CCD
:1038D0009F1C402FC33059F0F801EE0FFF1FE80D79
:1038E000F91DEA57FD4F859194919C0102C021E09A
:1038F00030E06D2F8C2F0E942D1C0F5F1F4F063064
:10390000110539F7DF5F8CE0E80EF11CDA30E1F6E3
:103910008501D0E0C33029F0F801859194919C0194
:1039200002C021E030E041E06D2F8C2F0E94C21BCD
:10393000C33031F0F8013296859194919C0102C018
:1039400021E030E040E06D2F8C2F0E94C21BDF5F32
:103950000C5F1F4FD230F1F688E0A80EB11CCF5F8C
:1039600088E7C80ED11CC43009F0ABCFCDB7DEB7A5
:10397000ECE00C94593680E00E947A1B60E070E025
:10398000CB010E94751B0E94541C0E94B21B81E057
:103990000E947A1B08950F931F93CF93DF93843077
:1039A00008F56A30F8F44630E8F4C42FD0E0CC0FC4
:1039B000DD1F2CE0629FC00DD11D112438E7839FCD
:1039C000C00DD11D1124CE0189960E94873690E04A
:1039D000182F0027CE018A960E9487369801282B3F
:1039E000C90102C080E090E0DF91CF911F910F915B
:1039F0000895FC01680F791F8FEF91E3E617F70731
:103A000071F02191822728E030E087FF03C0880F02
:103A1000892701C0880F21503109B9F7EFCF0895E8
:103A2000ACE0B0E0E6E1FDE10C944536182F062F3E
:103A3000662349F00E94E51A1F832DEF28879A8795
:103A4000898782E008C00E94E51A1F832CEF28872F
:103A50009A87898783E08B8781E08C874F8158859F
:103A600069857A858B859C850E949A0C002349F094
:103A70000E94E51A19832DEF2A839C838B8382E0B1
:103A800008C00E94E51A19832CEF2A839C838B833C
:103A900083E08D831E8249815A816B817C818D8177
:103AA0009E810E949A0C2C96E4E00C946136EF9271
:103AB000FF920F931F93CF93DF93EC017B0164E69A
:103AC00070E088E70E9479338C01EC0EFD1ECE1564
:103AD000DF0541F40E94633481E00115110569F0AE
:103AE00080E00BC017FDF6CFFE01849164E670E024
:103AF0000E94EC338C012196EACFCDB7DEB7E6E029
:103B00000C945F368091EF039091EE03882389F047
:103B1000992369F062E070E084E892E00E94571D0A
:103B2000811103C08091EE0308951092EE039091ED
:103B3000EE0381E0892708958091EF038823F9F04F
:103B40000E94D91ADC01CB01805A9541AF4FBF4F7B
:103B50008093EA039093EB03A093EC03B093ED03FF
:103B60008091EE0381110BC062E070E082E892E088
:103B70000E94571D882319F081E08093EE03809105
:103B8000EE030895882311F0FA0101C0FB010995A5
:103B90000895209161049091280457E02917A9F015
:103BA00030E0529FF001539FF00D1124E75DFB4F71
:103BB0007181761306C07081781303C07581741308
:103BC00006C02F5F3F4F2770E9CF80E0089581E066
:103BD00008959B01782F777043E0969587954A95D5
:103BE000E1F7FC01EE0FFF1F8E0F9F1FF901E80F99
:103BF000F91F40E050E080E0219130E0072E02C044
:103C0000369527950A94E2F721703327042E01C0D8
:103C1000220F0A94EAF7822B4F5F5F4F4330510522
:103C200059F70895962F9770A1E001C0AA0F9A95B1
:103C3000EAF793E0769567959A95E1F7FB01EE0F29
:103C4000FF1F6E0F7F1FFA01E60FF71F40E050E0E5
:103C5000682F70E090819B01042E02C03695279555
:103C60000A94E2F72170219529272A2329272193F5
:103C70004F5F5F4F4330510569F708951F93CF930E
:103C8000DF930E94DA25EC01C11580E5D807E8F53D
:103C9000C11590E4D90708F0A8C0C03ED10530F5A1
:103CA000CD3CD10508F094C0C83AD10578F4C53AA6
:103CB000D10508F083C0C130D10509F47CC008F4F7
:103CC000F2C0C430D10508F0F1C0EDC0C33CD1054D
:103CD00008F0E9C0C85AD0E0CC0FDD1FC258DE4F53
:103CE0000990D881C02DCE019464E1C0C11580E255
:103CF000D80708F0CBC0C11591E0D90708F06BC018
:103D0000C83ED10508F4D2C0CEC0C03682E5D8077F
:103D100028F5C03492E5D90708F079C0C03282E5B1
:103D2000D80708F06CC0C11592E5D90708F481C026
:103D30004C2F4695469580E2489FA0011124C37000
:103D400021E030E0C90102C0880F991FCA95E2F74F
:103D5000EA01C82BD92BCE019D68A9C0C03A82E5E3
:103D6000D807B8F48C2F8F71C03892E5D90708F0C6
:103D70007BC08695869590E2899F90011124C3703F
:103D800081E090E002C0880F991FCA95E2F79A6817
:103D900068C0C03C82E5D80708F46DC0C03E92E51B
:103DA000D90708F080C0CF71DD27DC2FCC27CE01EA
:103DB000806F906A7CC081E090E079C0C55AD0E005
:103DC000C558DE4F8881C82FD0E0CE0190646FC007
:103DD000CE0190656CC08D2F0E948B25182FCE01CF
:103DE00099270E94DA251F715CC0CE0199270E9495
:103DF000DA25CC27DF70D06A8C2B9D2B58C0CF7171
:103E0000D0E0DC2FCC27CE01816F906A50C08C2F80
:103E10008F718695869590E2899F90011124C370D9
:103E200081E090E002C0880F991FCA95E2F79C6874
:103E300018C08C2F8F710E948B2595E0D695C79561
:103E40009A95E1F7CF70D0E0DC2FCC27282F30E017
:103E500084FF05C084E0220F331F8A95E1F7D06903
:103E6000CE01822B932B23C090E0D82FCC27CE01FC
:103E7000846F906A1CC08C2F8F710E948B258F716C
:103E800090E0D82FCC27CE01906211C08D2F8F717A
:103E90000E948B25182FCE0199270E94DA251F71C9
:103EA0009062912B04C080E090E001C0CE01DF91D0
:103EB000CF911F9108950E942925089580E090E0F8
:103EC0000E948F36863E9E4F19F40E94991B0895DA
:103ED00080E00895A8E0B0E0E0E7FFE10C94473609
:103EE00066EE7EEF80E090E00E94C33660E082E004
:103EF00090E00E94A53681E080936E0461E083E04B
:103F000090E00E94A53660E074E184E090E00E94B9
:103F1000C33660E086E090E00E94A5366FEF87E050
:103F200090E00E94A53640E050E0BA0188E090E0C1
:103F30000E94B73660E084E290E00E94A53660E01F
:103F400087E190E00E94A53660E08CE090E00E945E
:103F5000A53660E08DE090E00E94A53619821A82B5
:103F60001B821C821D821E821F82188648E050E040
:103F700068E170E0CE0101960E94953640E050E085
:103F8000BA0180E290E00E94B73680E00E947A1B7E
:103F90000E94BB1C40E050E0BA018FE090E00E941C
:103FA000B73640E050E0BA0183E190E00E94B736B6
:103FB0002896E2E00C946336809590916D048923F5
:103FC00080936D04089590916D0480916404892B11
:103FD00090916304992379F0892BE0E0F4E027E0E5
:103FE00090E0215029F031913323D9F39F5FF9CF2D
:103FF0009111109263048093FE0348E050E065E65F
:1040000074E08EEF93E00E94F636892BA9F088E0E9
:10401000EEEFF3E0A5E6B4E001900D928A95E1F7AA
:10402000E091F403F091F503309731F00280F381D1
:10403000E02D8EEF93E009950895809161049091B1
:104040002804891719F08F5F8770FBCF0895CF93ED
:10405000DF938091270482958F7009F04EC0809184
:104060002604882309F449C0809161044091280402
:104070005091220460912104C0912304D091240422
:1040800077E08417D1F190E0789FF001799FF00DEF
:104090001124DF01A75DBB4F14962C9114972223A6
:1040A00049F111962C911197251324C02C912613B8
:1040B00021C015962C91159721111CC012962D9197
:1040C0003C9113972C1B3D0B283C310598F48091B3
:1040D00027048F70806180932704E15DFB4F80810E
:1040E0008F708061808381E294E00E942A0D0E949B
:1040F0001D2003C001968770C4CFDF91CF91089532
:10410000CF92DF92FF920F931F93CF93DF936C01B7
:104110000091CC0280916E04082BC3E0D0E010E047
:10412000C8010C2E02C0959587950A94E2F780FD90
:1041300004C02197A8F7F12C09C0FC2EB6018C2FE2
:104140000E9476260E943E1E019799F38F2DDF91E3
:10415000CF911F910F91FF90DF90CF900895CF9353
:10416000DF93EC010E948020BE010E9476260E940F
:104170003E1EDF91CF910895FC0124812223D9F0C6
:10418000808191810E94AF2092959F70963079F046
:1041900010F4925001C09A50923068F4803F69F058
:1041A00018F4883E40F409C0843F29F406C0883ED4
:1041B00020F0813F11F080E0089581E00895A4E1AE
:1041C000B0E0E5EEF0E20C943D368C0186E0F801BB
:1041D000DE011F9601900D928A95E1F7F801848126
:1041E000E58091E2892E94E0992E90912504911119
:1041F00020C0882309F463C1EE2009F442C0C8013D
:104200000E94BC20F82E8823E1F187E0F801D40158
:1042100001900D928A95E1F780912504813031F467
:1042200080912104909122040E94AF200E942720B7
:1042300048C1F801D080C180A280B380F0902604EC
:104240002091230430912404FF2009F4E7C0A50144
:10425000421B530B483C510508F09DC0882309F4CC
:1042600030C180912704282F207F9091220422239F
:1042700061F09C1509F460C0C8010E94BC20811146
:1042800063C0C8010E942A0D1AC19C1113C09091ED
:1042900021049D110FC0E1100DC08F7080618093CB
:1042A000270481E294E00E942A0D80912704F801FE
:1042B000868303C1E1103AC040E06C2D8D2D0E9431
:1042C000C91D40E06C2D8D2D0E94C91DE82E811165
:1042D000F4C0DF86C88A8F8598890E94AF20292F75
:1042E00022952F70243020F49F70223028F009C0CE
:1042F0002A50223080F014C0992349F0811107C060
:1043000013C0992321F0F8019681907F69F0805EB7
:10431000883030F409C0803F38F0815F833020F06E
:10432000C8010E942A0DEF2CFE2CCBC080912704DF
:10433000816080932704C1C0909121049D119CCF7E
:10434000E1109ACFF80198C0EE2009F49ACF20919D
:104350002704822F82958F7090E002978CF08091D5
:1043600021049091220499878887BB86AA86809130
:1043700025048C871D862E87CE0108960E942A0D63
:1043800087E0F801A1E2B4E001900D928A95E1F78F
:104390000E94272094C090912704292F207F51F458
:1043A00081E294E00E942A0D87E0F40111928A953F
:1043B000E9F783C0882309F484C0809122048C111A
:1043C0000CC0809121048D1108C0E11006C0F801D5
:1043D0009683C8010E942A0D6AC0C8010E94BC20B1
:1043E000882309F44ECFEE2009F44BCF2091270407
:1043F000822F82958F7090E0029714F280912104B1
:10440000909122049A838983BC82AB828091250497
:104410008D831E822F83CE010196B0CFA21AB30ADC
:10442000F8ECAF16B10408F042C0882309F447C085
:10443000FE2CEE2009F425CF809122048C1129C096
:10444000809121048D1125C09091270490FD18C002
:10445000892F82958F70282F30E02115310581F04A
:10446000F80196832F30310541F08F5F982F929598
:10447000907F86818F70892B8683C8010E942A0DC8
:1044800087E0F801A1E2B4E001900D928A95E1F78E
:1044900018C0C8010E94BC20811172CF80912704EE
:1044A000816080932704C8010E942A0D0AC087E01A
:1044B000F40111928A95E9F704C0F12C02C0FF249F
:1044C000F3948F2D6496ECE00C945936292F9A3092
:1044D00058F4863048F490E069E074E036E0239FB9
:1044E000800D911D112406C02C5F223030F466E04F
:1044F00074E090E00E94E91D089580E00895282F5F
:10450000862F9A3060F4263050F4622F70E026E057
:10451000929F600D711D112449E054E007C09C5F1B
:10452000923030F4622F70E046E054E00E94121E98
:1045300008958093CC0208959091CC0221E030E060
:10454000F90101C0EE0F8A95EAF7D90102C0AA0F5E
:10455000BB1F6A95E2F7BD016E2B01C0220F4A9581
:10456000EAF7892F8623681303C0892F822B03C0A3
:104570002095822F89230E949922089521E030E01E
:1045800001C0220F8A95EAF720958091CC02822300
:104590000E949922089590916204809589238093C6
:1045A0006204282F277069F4981759F09091CE0271
:1045B00092FF07C08695869586950E94BE2210922E
:1045C000620408959091CE0292FB222720F92817C9
:1045D00079F080FB92F99093CE026091CD027091B8
:1045E000CE0284E090E00E94C33682E00E94CB229B
:1045F000089521E030E001C0220F8A95EAF780910A
:10460000CC02822B0E949922089580936E04089513
:1046100010926D0486E0E0E0F4E0DF011D928A95DF
:10462000E9F780E090E00E943F1B80E090E00E946C
:104630001A1B109264040E94E31F0895A6E0B0E0E4
:10464000E4E2F3E20C9445360E94E51A8C01809175
:104650006F04909170040817190781F019821A826B
:104660000E94E51A682F49815A81792F80E090E0F5
:104670000E949A0C1093700400936F042696E4E055
:104680000C94613680E00895A0E0B0E0EAE4F3E243
:104690000C943F367C015B016A018091AE048A3044
:1046A00018F001E010E002C00AE010E0C1E0D0E044
:1046B000B501C701F6010995811115C021960C17A6
:1046C0001D0794F0CC9F9001CD9F300D300D11242B
:1046D00080E090E045E34A95F1F7000001968217EB
:1046E0009307C1F7E5CF81E0CDB7DEB7EAE00C94E0
:1046F0005B36A0E0B0E0EFE7F3E20C944136C82F60
:104700007B01D42F6901FB016081718182819381DA
:104710000E94AE1A643671058105910510F4DD23FF
:1047200039F10C2E000CDD0B01151105A9F0FE016D
:1047300083E0EE0FFF1F8A95E1F7EC5EFE4F81816B
:10474000928184579B4F408150E00417150708F46D
:10475000A801B6010E940337CE010E94A835882324
:1047600041F00E94D91AF701608371838283938399
:1047700081E0CDB7DEB7E8E00C945D36A9E0B0E0AB
:10478000E4ECF3E20C94453688E0E9ECF4E0DE0179
:10479000119601900D928A95E1F78091E006898744
:1047A00049E050E06DE974E0CE0101960E94F636D2
:1047B00041E0892B09F440E009E010E09E012F5F01
:1047C0003F4F6AEA74E086E00E9479232996E4E08C
:1047D0000C9461360F931F93CF93DF93EC0145E068
:1047E00050E062E974E00E94F63641E0892B09F45A
:1047F00040E005E010E09E0164E874E082E00E9481
:104800007923DF91CF911F910F910895A1E0B0E03E
:10481000ECE0F4E20C943B36C62E4A015901682EB6
:10482000880F7708C3010E94A835882309F466C061
:10483000C30123E0880F991F2A95E1F7FC01EC5E84
:10484000FE4F438150E04115510511F041E050E029
:10485000FC01EC5EFE4F6481758164577B4FCE0195
:1048600001960E940337F4016081718182819381F6
:104870000E94AE1A643671058105910538F4B701BE
:10488000C8010E94F91C99818917D1F10C2C000CE8
:10489000DD08C6010E94A835782E8823E1F0E114D6
:1048A000F104C9F0960183E0220F331F8A95E1F7E6
:1048B000F901EC5EFE4F438150E0E416F50608F482
:1048C000A701F901EC5EFE4F6481758164577B4F4F
:1048D000C5010E940337B701C8010E94F91C91E08D
:1048E0002981281390E0D92ED72089F00E94D91A67
:1048F000F401608371838283938309C0D12C02C049
:10490000DD24D394A701B801C5010E9403378D2D82
:104910002196EEE00C945736A1E0B0E0E2E9F4E233
:104920000C944036EE24E394F12C08E914E09E0147
:104930002F5F3F4F48E854E064E083E00E94062484
:10494000B82E882309F43DC000E080E09091BE02BB
:104950000917A0F5D090BF02D00E2D2D30E0A9018F
:1049600046525D4F7A01E1E0F0E0EC0FFD1FE00FF1
:10497000F11D1081FA019081191BC12E1C145CF4E9
:10498000CA94F70180818F5F808360E08D2D0E9443
:10499000101D81E0F3CF912F17FD90E0191B11231B
:1049A00059F01F5FF70180818150808361E08D2D78
:1049B0000E94101D81E0F3CF0F5FC8CF81110E94CC
:1049C0005B1F8B2D2196E9E00C945C36A5E0B0E0EE
:1049D000ECEEF4E20C9441366B0185E0E82EF12C0C
:1049E0000DE814E09E012F5F3F4F40E854E061E086
:1049F00080E00E940624882349F095E0FE0131966C
:104A0000ABE7B4E001900D929A95E1F795E0EBE702
:104A1000F4E0D60101900D929A95E1F72596E8E031
:104A20000C945D36F894E82FE295EF70F0E031A138
:104A3000282F2F7081E090E001C0880F2A95EAF7B7
:104A4000982F9095932391A392A1892B82A3789478
:104A500008950F931F938091F003882319F00E940B
:104A6000D91A0EC00E94D91A0091BA021091BB0245
:104A70002091BC023091BD02600F711F821F931FF5
:104A80001F910F910895A4E0B0E0E9E4F5E20C94E1
:104A900047366091A6047091A7048091A804909174
:104AA000A9040E94AE1A643671058105910570F162
:104AB0000E942925DC01CB010296A11DB11D89832D
:104AC0009A83AB83BC8380913D0190913E018457D2
:104AD0009B4F40913C0150E04530510510F044E0BF
:104AE00050E0BE016F5F7F4F0E94033785E090E08A
:104AF0000E94A835882359F00E94D91A6093A60411
:104B00007093A7048093A8049093A90481E024964D
:104B1000E2E00C9463369091CD0292FF10C041E028
:104B2000282F2471243009F040E031E0282F28712B
:104B3000283009F030E0431711F02CE0822793FF72
:104B400010C041E0282F2471243109F040E031E009
:104B5000282F2871283109F030E0431711F02CE09C
:104B600082273091CE0230FF10C051E0282F2171F2
:104B7000213009F050E041E0282F2871283009F059
:104B800040E0541711F029E0822731FF10C041E0C6
:104B9000282F2171213109F040E031E0282F2871C0
:104BA000283109F030E0431711F029E0822794FD05
:104BB000877E08958238910569F1B0F481339105BB
:104BC00009F475C048F48932910509F467C08A3246
:104BD000910509F471C008958533910509F459C010
:104BE00089339105B9F00895833E910589F138F430
:104BF000803E9105D1F0823E910529F10895863ECF
:104C00009105C9F1873E9105D9F1843E910509F0DE
:104C10006CC027C02091CD0220FD57C021FD55C09A
:104C20002091CE0223FD5BC008958091CD0280FDCE
:104C300048C08091CE0280FF48C08091CD0284FDA3
:104C400046C083EE51C08091CD0282FF3CC0F5CFBB
:104C50008091CD0282FD37C08091CE0280FD35C0AB
:104C6000ECCF8091CE0281FF36C08091CD0284FDD1
:104C70002EC087EE39C08091CD0283FF2AC0F5CFC8
:104C80008091CD0283FD25C08091CE0281FD23C09D
:104C9000ECCF8091CD0285FD22C01FC08091CD0256
:104CA00085FD1BC08091CE0283FF19C00AC0809190
:104CB000CD0286FD16C017C08091CD0286FD13C0BF
:104CC00010C089E311C082EE0FC080EE0DC080E0FD
:104CD0000BC086EE09C084EE07C085E305C089E2FB
:104CE00003C08AE201C081E390E008957A3048F47D
:104CF0006630C8F48430B8F4462F672F0E94CB1C6E
:104D000008957D3F31F4623070F4843060F441E006
:104D100007C07C3F41F4623030F4843020F440E03E
:104D20000E94F41B089580E090E00895AFE0B0E0A9
:104D3000ECE9F6E20C943A369E012F5F3F4F790181
:104D40008AE0D9011D928A95E9F708E511E0690129
:104D50008DE5682E81E0782EAA24A394B12C23E659
:104D6000822E21E0922EF80180818F3F09F440C00D
:104D7000F894E82FE295EF70F0E021A18F70A50183
:104D800002C0440F551F8A95E2F7CA01922F982B53
:104D900091A392A18095892382A3789400C0EDE528
:104DA000F1E0512C31E021912F3F89F0A22FA29503
:104DB000AF70B0E090968C9190E02F7002C0959506
:104DC00087952A95E2F780FD02C0832F01C080E01D
:104DD000582A330F8E169F0631F7D8018C918F3FDA
:104DE00011F00E941225B0EABA95F1F7F60150824F
:104DF0000F5F1F4FFFEFCF1ADF0A6016710609F031
:104E0000B2CF4AE050E0B70180EC92E00E94F63663
:104E1000892B99F08AE0F701A0ECB2E001900D92A5
:104E20008A95E1F781E0809373040E94E51A9093DC
:104E3000720480937104D12C27C08091730488235D
:104E4000D1F30091CB0280917104909172040E9481
:104E5000CA1A059780F310E0095F1C4F45E050E047
:104E600060EC72E0C8010E94F636892B09F411C18A
:104E700085E0E0ECF2E0D80101900D928A95E1F72F
:104E8000DD24D394109273048091F003E091CB025F
:104E90009E01255F3F4F7901882309F47DC085E09D
:104EA000D9011D928A95E9F70E2F10E0095F1C4F7A
:104EB0008091AE048A3048F446EE54E2B701C8014E
:104EC0000E9444238823E9F10AC0809174049091E0
:104ED00075040E94CA1A843F914070F743C04AEE9D
:104EE00053E2B701C8010E944423882351F14CE8E2
:104EF00054E2B701C8010E944423882311F143E41E
:104F000055E2B701C8010E9444238823D1F04EEB3B
:104F100053E2B701C8010E944423882391F0109204
:104F2000AE048091CA0290E045E050E0B701895F8D
:104F30009C4F0E94F63621E020937A04892BF1F4ED
:104F4000A2C08091AE048F3F19F08F5F8093AE04B2
:104F50008091AE048A3028F30E94E51A909375047C
:104F60008093740480917A04882309F48CC085E0CE
:104F7000F70111928A95E9F710927A04A091CA027A
:104F8000B0E0A95FBC4F85E0FE013B9601900D9219
:104F90008A95E1F781E078C00091CA0210E0095FCC
:104FA0001C4FF0E0E95FFC4F85E0ADE8B4E0019014
:104FB0000D928A95E1F765E070E08DE894E00E943B
:104FC000F91C80938C0485E0E2E9F4E0D8010190BB
:104FD0000D928A95E1F74091DF0250E06091DE0288
:104FE00070E066527D4FC7010E9403378B85809326
:104FF000980461E070E0C7010E94F91C8093970457
:105000008090990490909A04A0909B04B0909C0486
:105010008091760490917704A0917804B0917904FE
:1050200088169906AA06BB06B1F080927604909283
:105030007704A0927804B09279040E94D91A861A53
:10504000970AA80AB90A8092BA029092BB02A0926B
:10505000BC02B092BD0288E0EDE9F4E0A9ECB4E056
:1050600001900D928A95E1F71091A504112349F062
:105070008091E006811105C00E94CD1280E00E945F
:10508000912E1093E00680E08D292F96EFE00C948E
:105090005636D12CF7CECF93DF93C091DA06D0915C
:1050A000DB068A30B1F42091D104CE01845D9440B6
:1050B000622F70E00E942336281B822F66E00E9438
:1050C000C936C82FC15008F48FC080E20E944B2817
:1050D000F9CF8D30E9F4C45DD4402091D104622F22
:1050E00070E0CE010E942336281B822F9E01280FDC
:1050F000311D2115324018F080E0C0E0D0E0C80F2B
:10510000D11DCC52DB4FD093DB06C093DA066CC0C6
:1051100096E0FE01A4EDB6E001900D929A95E1F7BC
:10512000803E30F086E0FE0111928A95E9F70BC0CF
:10513000F6E08F9FB0011124635C7A4F46E050E0A7
:10514000CE010E946E36C091DA06D091DB0646E0B1
:1051500050E0BE0184ED96E00E94F636892B49F1BD
:105160009E01245D3440A90185E0569547958A95B6
:10517000E1F781E090E0BC0102C0660F771F4A951D
:10518000E2F74091D2045091D304462B572B2B5F6A
:105190003F4F65E0369527956A95E1F702C0880F85
:1051A000991F2A95E2F7842B952B9093D304809333
:1051B000D2049E012E5C34404091D104642F70E0F3
:1051C000C9010E942336481B463010F4240F311DBC
:1051D000211582E0380710F020E030E02C523B4FE0
:1051E0003093DB062093DA06DF91CF910895A0E09B
:1051F000B0E0EDEFF8E20C9442368C0180914D0165
:105200000E947D2EEC016091CD046695669521E0AB
:10521000620F08F46FEF8091C5049091C6040E945C
:10522000F331D82ECD17F0F4EC2EF12CF701EB581A
:10523000FD4F908180914E01892391F06091CA04C5
:105240007091CB048091CC042D2D4C2FF801099541
:105250000E941E32462F282F672FC7010E9421313E
:10526000CF5FE0CF8D2F0E941032CDB7DEB7E7E0E1
:105270000C945E36A0E0B0E0E0E4F9E20C943E3637
:105280006C0180914D010E947D2E192FC82F6091D5
:10529000CD04669566958091C5049091C6040E94E0
:1052A000F331D82F80E48D0F0E943F3190E8F92E22
:1052B000F80E8D2F0E943F3120E8922E980EC117D4
:1052C00000F5AC2EB12CF501EB58FD4F908180918B
:1052D0004E018923A1F06091CA047091CB048091A2
:1052E000CC04ED2E0C2F292D4F2DF60109950E948F
:1052F0001E32462F282F672FC5010E942131CF5F14
:10530000DECF812F0E941032CDB7DEB7EBE00C94D8
:105310005A36A0E0B0E0EFE8F9E20C943C365C01CC
:1053200080914D010E947D2EF92E182F6091CD04A1
:1053300066958091C5049091C6040E94F331782E41
:105340001F1508F043C0812E912CF401EB58FD4F3E
:10535000908180914E018923B9F1F401EE0FFF1F76
:10536000EF5FFD4FC081D0E0C057D109F401EE0FCF
:10537000FF1FEB53FE4FC5ACD12C80E2C81AD108F9
:10538000CC9F9001CD9F300D300D1124CC9CC001DD
:10539000CD9C900D900D1124820F931F0E94993186
:1053A000082F6091CA047091CB048091CC04E72C43
:1053B0009601AE01F50109950E941E32462F282F55
:1053C000672FC4010E9421311F5FBACF8F2D0E9429
:1053D0001032CDB7DEB7EDE00C945836A0E0B0E067
:1053E000E4EFF9E20C9441367C0180914D010E947A
:1053F0007D2ED92E182F6091CD0466958091C5041D
:105400009091C6040E94F331C82E1D1578F5C12F66
:10541000D0E0FE01EB58FD4F908180914E01892331
:1054200019F1FE01EE0FFF1FEB53FE4F25AD30E0EB
:1054300020523109FE01EE0FFF1FEF5FFD4F40814B
:1054400050E0405751096091CA047091CB0480919B
:10545000CC040C2DF70109950E941E32462F282FEF
:10546000672FCE010E9421311F5FCFCF8D2D0E946B
:105470001032CDB7DEB7E8E00C945D36AAE2B0E0BA
:10548000E4E4FAE20C944636EDEBF4E085EC94E0CB
:105490002091F10021938E179F07D1F78091BE04D0
:1054A000833009F463C030F4813071F0823009F444
:1054B0009DC0B4C08A3009F489C08B3009F46EC035
:1054C000893009F0ABC020C08091BD04813A09F059
:1054D000A5C08091E800877F8093E8008091C10497
:1054E0009091C204892B21F468E081EB94E003C021
:1054F00060E080E090E070E00E94C0198091E800D8
:105500008B778093E8008AC08091BD04813209F0D6
:1055100085C08091C1049091C204009719F0029750
:1055200009F07CC08091E800877F8093E80080913B
:10553000E80082FD05C08091BB048111F8CF6EC0E8
:105540002091F3008091F20090E0922B029731F4C9
:105550008091F100813011F0863021F48091F100CA
:105560008093B0048091E8008B7754C08091BD0493
:10557000813A09F053C08091C1049091C204892BF3
:1055800009F04CC08091E800877F8093E80080910B
:10559000E80080FFFCCF80914C0137C08091BD04B2
:1055A0008132E1F58091C1049091C204892BB1F55B
:1055B0008091E800877F8093E8000E943A188091EC
:1055C000BF0480934C010E94082328C08091BD0431
:1055D000813221F58091E800877F8093E8000E9466
:1055E0003A188091C0048093AF0418C08091BD0424
:1055F000813AA1F48091E800877F8093E800809150
:10560000E80080FFFCCF8091AF048093F10080918F
:10561000E8008E778093E8000E943A188091E800B5
:1056200083FFDFC18091BD049091BE04492F50E0FB
:105630004A30510508F0D5C1FA01E255FF4F0C94EC
:10564000E936803821F0823809F0CBC108C080915A
:10565000B9049091BA04992389F082600FC08091B7
:10566000C1048F70873008F0BCC18093E90080913D
:10567000EB0085FB882780F91092E9009091E80003
:10568000977F9093E8008093F1001092F10070C131
:10569000282F2D7F09F0A5C1882319F0823061F0F1
:1056A000A0C18091BF04813009F09BC1933009F003
:1056B00080E08093BA042EC08091BF0481112AC07B
:1056C0008091C1048F702FEF280F263008F089C118
:1056D0008093E9002091EB0020FF1CC0933021F45F
:1056E0008091EB00806214C09091EB0090619093E8
:1056F000EB0021E030E0A90102C0440F551F8A955C
:10570000E2F74093EA001092EA008091EB00886093
:105710008093EB001092E9008091E800877F8093EE
:10572000E8000E943A185DC181115BC11091BF046D
:105730001F778091E3008078812B8093E300809134
:10574000E800877F8093E8000E943A188091E80083
:1057500080FFFCCF8091E30080688093E30011110B
:1057600002C082E001C083E08093BB043AC180584C
:10577000823008F036C12091BF043091C0042C3D26
:1057800053E0350779F583E08A838AE289834FB74E
:10579000F894DE01139620E03EE051E2E32FF0E0C2
:1057A00050935700E49120FF03C0E295EF703F5FF4
:1057B000EF708E2F90E0EA3010F0C79601C0C096CF
:1057C0008D939D932F5F243149F74FBF8091E8005F
:1057D000877F8093E8006AE270E0CE0101960E9424
:1057E000C019B4C08091C1049091C204432F5527C1
:1057F00043305105A9F068F44130510509F400C166
:105800004230510509F0EDC08BE590E0EEE9F4E09F
:105810004BC04132510529F14232510589F1E1C0B5
:10582000C901992781309105A1F058F0029709F03C
:10583000D8C0EBE0F5E0E4918E2F90E0EBE0F5E0EE
:1058400030C0E9E3F5E0E4918E2F90E0E9E3F5E084
:1058500028C0E3E2F5E0E4918E2F90E0E3E2F5E08A
:1058600020C08330910508F0BCC0880F991FFC014F
:10587000E154FE4F0190F081E02D89E090E014C0EA
:105880008330910508F0ADC0FC01EE0FFF1FE75417
:10589000FE4F0190F081E02DDC01AA54BE4F8C91A7
:1058A00090E0009709F49DC02091E800277F2093A5
:1058B000E8002091C3043091C4042817390708F484
:1058C000C90140E0009789F12091BB04222309F42B
:1058D0003DC02530D9F12091E80023FD37C020914B
:1058E000E80022FD2FC02091E80020FFEBCF40917F
:1058F000F3002091F20030E0342B009759F028306B
:10590000310540F444914093F100319601972F5FA7
:105910003F4FF3CF41E02830310509F040E02091BE
:10592000E8002E772093E800CDCF4111CDCF0AC0FB
:105930008091BB04882351F0853041F08091E800CC
:1059400083FD04C08091E80082FFF2CF8091E800DF
:105950008B778093E80045C0803809F042C0809181
:10596000E800877F8093E8008091BC048093F10079
:105970008091E8008E77D3CE811133C08091BF042F
:105980009091C0049927029764F58091E800877F81
:105990008093E8001091BF041093BC040E943A1851
:1059A000111106C08091E30087FD02C081E001C0B3
:1059B00084E08093BB0442E061EC81E00E945918CE
:1059C00042E261EC84E00E94591842E261EC82E01C
:1059D0000E94591842E260EC83E00E9459188091BD
:1059E000BB048091E80083FF10C08091E800877FAE
:1059F0008093E8008091EB0080628093EB0005C00B
:105A000082E190E0E9EFF4E04FCFAA96E3E00C9456
:105A100062363091F103311105C08D31910524F1C9
:105A20004D9703C08D319105FCF4FC01EE0FFF1F73
:105A3000DF01A80FB91FAD51B94F11963C911197D5
:105A4000361307C03C91341304C012963C913217B0
:105A500059F031E03093E2068E0F9F1FFC01ED51AB
:105A6000F94F61834083228308951092E2060895DE
:105A7000E9ECF4E0248130E1231B08F420E02483E6
:105A80008091E10681608093E1060895E9ECF4E0FD
:105A9000248130E1230F08F42FEF24838091E10665
:105AA00081608093E10608958091E206882339F1B0
:105AB000539A8BB1877F9BB198602FB7F894E3EE30
:105AC000F6E037E0E139F30789F0319148E09BB91E
:105AD000000000C037FF8BB9330F000000C000C0CA
:105AE00000C08BB900C04A9591F7EBCF2FBF8FE56F
